:020000040800F2
:1000000000000220F989000841870008498700089C
:100010005187000859870008618700080000000028
:1000200000000000000000000000000069870008D8
:100030007787000800000000858700089587000882
:10004000498A0008498A0008498A0008498A000844
:10005000498A0008498A0008498A0008498A000834
:10006000498A0008498A0008498A0008498A000824
:10007000498A0008498A0008498A0008498A000814
:10008000498A0008498A0008498A0008498A000804
:10009000498A0008498A0008498A0008498A0008F4
:1000A000498A0008498A0008498A0008498A0008E4
:1000B000498A0008498A0008498A0008498A0008D4
:1000C000498A0008ED870008F9870008498A000876
:1000D000498A00080588000819880008498A00082C
:1000E000498A0008498A0008498A0008498A0008A4
:1000F000498A0008498A0008498A0008498A000894
:10010000498A0008498A0008498A0008498A000883
:10011000498A0008498A0008498A0008498A000873
:1001200027880008498A0008498A0008498A000887
:10013000498A0008498A0008498A0008498A000853
:10014000498A0008498A0008498A0008498A000843
:10015000498A0008498A0008498A00083588000849
:10016000498A0008498A0008498A0008498A000823
:10017000498A0008498A0008498A000800000000EE
:08018000498A0008498A0008C1
:1001900010B5054C237833B9044B13B10448AFF3C1
:1001A00000800123237010BDF443002000000000F4
:1001B00018F8000808B5034B1BB103490348AFF317
:1001C000008008BD00000000F843002018F8000877
:1001D00010F8012B11F8013B012A28BF9A42F7D0F1
:1001E000D01A70470000000000000000000000006E
:1001F00001F0FF01102A2BDB10F0070F08D010F8D8
:10020000013B013A8B422DD010F0070F42B3F6D1DB
:10021000F0B441EA012141EA014122F007047FF0F4
:1002200000070023F0E80256083C85EA010586EA4B
:10023000010685FA47F5A3FA87F586FA47F6A5FA87
:1002400087F68EB9EED1F0BC01F0FF0102F0070293
:1002500032B110F8013B013A83EA010313B1F8D13E
:100260000020704701387047002D06BF354603381F
:10027000073815F0010F07D1013015F4807F02BF58
:10028000013015F4C03F0130F0BC0138704700BFA9
:10029000034613F8012B002AFBD1181A01387047C6
:1002A00081F0004102E000BF83F0004330B54FEA27
:1002B00041044FEA430594EA050F08BF90EA020F94
:1002C0001FBF54EA000C55EA020C7FEA645C7FEA27
:1002D000655C00F0E2804FEA5454D4EB5555B8BF4A
:1002E0006D420CDD2C4480EA020281EA030382EABB
:1002F000000083EA010180EA020281EA0303362D4D
:1003000088BF30BD11F0004F4FEA01314FF4801C1F
:100310004CEA113102D0404261EB410113F0004F31
:100320004FEA03334CEA133302D0524263EB4303E8
:1003300094EA050F00F0A780A4F10104D5F1200E86
:100340000DDB02FA0EFC22FA05F2801841F10001E1
:1003500003FA0EF2801843FA05F359410EE0A5F1B5
:1003600020050EF1200E012A03FA0EFC28BF4CF0E6
:10037000020C43FA05F3C01851EBE37101F000459C
:1003800007D54FF0000EDCF1000C7EEB00006EEBA9
:100390000101B1F5801F1BD3B1F5001F0CD3490833
:1003A0005FEA30004FEA3C0C04F101044FEA44528A
:1003B00012F5800F80F09A80BCF1004F08BF5FEA11
:1003C000500C50F1000041EB045141EA050130BDF1
:1003D0005FEA4C0C404141EB0101013C28BFB1F503
:1003E000801FE9D291F0000F04BF01460020B1FA4E
:1003F00081F308BF2033A3F10B03B3F120020CDA21
:100400000C3208DD02F1140CC2F10C0201FA0CF0FE
:1004100021FA02F10CE002F11402D8BFC2F1200C63
:1004200001FA02F120FA0CFCDCBF41EA0C01904019
:10043000E41AA2BF01EB0451294330BD6FEA040462
:100440001F3C1CDA0C340EDC04F11404C4F120024D
:1004500020FA04F001FA02F340EA030021FA04F35F
:1004600045EA030130BDC4F10C04C4F1200220FAB6
:1004700002F001FA04F340EA0300294630BD21FAF4
:1004800004F0294630BD94F0000F83F4801306BFBA
:1004900081F480110134013D4EE77FEA645C18BFAE
:1004A0007FEA655C29D094EA050F08BF90EA020F45
:1004B00005D054EA000C04BF1946104630BD91EA3D
:1004C000030F1EBF0021002030BD5FEA545C05D140
:1004D0004000494128BF41F0004130BD14F580047F
:1004E0003CBF01F5801130BD01F0004545F0FE41F3
:1004F00041F470014FF0000030BD7FEA645C1ABF28
:10050000194610467FEA655C1CBF0B46024650EA5E
:10051000013406BF52EA033591EA030F41F400218A
:1005200030BD00BF90F0000F04BF0021704730B510
:100530004FF4806404F132044FF000054FF00001E5
:1005400050E700BF90F0000F04BF0021704730B5A6
:100550004FF4806404F1320410F0004548BF40427B
:100560004FF000013EE700BF42004FEAE2014FEAD0
:1005700031014FEA02701FBF12F07F4393F07F4FAB
:1005800081F06051704732F07F4208BF704793F0AE
:100590007F4F04BF41F40021704730B54FF46074C1
:1005A00001F0004521F000411CE700BF50EA0102C4
:1005B00008BF704730B54FF000050AE050EA01026D
:1005C00008BF704730B511F0004502D5404261EBDD
:1005D00041014FF4806404F132045FEA915C3FF41E
:1005E000D8AE4FF003025FEADC0C18BF03325FEABB
:1005F000DC0C18BF033202EBDC02C2F1200300FA6C
:1006000003FC20FA02F001FA03FE40EA0E0021FA90
:1006100002F11444BDE600BF70B54FF0FF0C4CF47E
:10062000E06C1CEA11541DBF1CEA135594EA0C0F30
:1006300095EA0C0F00F0DEF82C4481EA030621EA6B
:100640004C5123EA4C5350EA013518BF52EA0335A6
:1006500041F4801143F4801338D0A0FB02CE4FF058
:100660000005E1FB02E506F00042E0FB03E54FF088
:100670000006E1FB03569CF0000F18BF4EF0010E80
:10068000A4F1FF04B6F5007F64F5407404D25FEA7C
:100690004E0E6D4146EB060642EAC62141EA55512F
:1006A0004FEAC52040EA5E504FEACE2EB4F1FD0C71
:1006B00088BFBCF5E06F1ED8BEF1004F08BF5FEAEF
:1006C000500E50F1000041EB045170BD06F00046A1
:1006D00046EA010140EA020081EA0301B4EB5C044E
:1006E000C2BFD4EB0C0541EA045170BD41F4801146
:1006F0004FF0000E013C00F3AB8014F1360FDEBF6B
:10070000002001F0004170BDC4F10004203C35DA46
:100710000C341BDC04F11404C4F1200500FA05F3C9
:1007200020FA04F001FA05F240EA020001F000426A
:1007300021F0004110EBD37021FA04F642EB0601E0
:100740005EEA430E08BF20EAD37070BDC4F10C040A
:10075000C4F1200500FA04F320FA05F001FA04F2CE
:1007600040EA020001F0004110EBD37041F10001BA
:100770005EEA430E08BF20EAD37070BDC4F12005C5
:1007800000FA05F24EEA020E20FA04F301FA05F22D
:1007900043EA020321FA04F001F0004121FA04F2D5
:1007A00020EA020000EBD3705EEA430E08BF20EAA5
:1007B000D37070BD94F0000F0FD101F000464000DF
:1007C00041EB010111F4801F08BF013CF7D041EA61
:1007D000060195F0000F18BF704703F00046520065
:1007E00043EB030313F4801F08BF013DF7D043EA36
:1007F0000603704794EA0C0F0CEA135518BF95EAEC
:100800000C0F0CD050EA410618BF52EA4306D1D172
:1008100081EA030101F000414FF0000070BD50EA91
:10082000410606BF1046194652EA430619D094EA1B
:100830000C0F02D150EA013613D195EA0C0F05D105
:1008400052EA03361CBF104619460AD181EA030159
:1008500001F0004141F0FE4141F470014FF0000011
:1008600070BD41F0FE4141F4780170BD70B54FF0AC
:10087000FF0C4CF4E06C1CEA11541DBF1CEA13552C
:1008800094EA0C0F95EA0C0F00F0A7F8A4EB05040E
:1008900081EA030E52EA03354FEA013100F0888005
:1008A0004FEA03334FF0805545EA131343EA1263CE
:1008B0004FEA022245EA111545EA10654FEA002683
:1008C0000EF000419D4208BF964244F1FD0404F53C
:1008D000407402D25B084FEA3202B61A65EB030598
:1008E0005B084FEA32024FF480104FF4002CB6EB55
:1008F000020E75EB030E22BFB61A754640EA0C00D5
:100900005B084FEA3202B6EB020E75EB030E22BF14
:10091000B61A754640EA5C005B084FEA3202B6EB55
:10092000020E75EB030E22BFB61A754640EA9C0014
:100930005B084FEA3202B6EB020E75EB030E22BFE4
:10094000B61A754640EADC0055EA060E18D04FEAA2
:10095000051545EA16754FEA06164FEAC30343EA42
:1009600052734FEAC2025FEA1C1CC0D111F4801F0F
:100970000BD141EA00014FF000004FF0004CB6E708
:1009800011F4801F04BF01430020B4F1FD0C88BFA7
:10099000BCF5E06F3FF6AFAEB5EB030C04BFB6EBB2
:1009A000020C5FEA500C50F1000041EB045170BDA5
:1009B0000EF0004E4EEA113114EB5C04C2BFD4EBD2
:1009C0000C0541EA045170BD41F480114FF0000E56
:1009D000013C90E645EA060E8DE60CEA135594EAD2
:1009E0000C0F08BF95EA0C0F3FF43BAF94EA0C0FD5
:1009F0000AD150EA01347FF434AF95EA0C0F7FF44A
:100A000025AF104619462CE795EA0C0F06D152EA9D
:100A100003353FF4FDAE1046194622E750EA410681
:100A200018BF52EA43067FF4C5AE50EA41047FF492
:100A30000DAF52EA43057FF4EBAE12E74FF0FF3CF7
:100A400006E000BF4FF0010C02E000BF4FF0010CC8
:100A50004DF804CD4FEA410C7FEA6C5C4FEA430C41
:100A600018BF7FEA6C5C1BD001B050EA410C0CBF90
:100A700052EA430C91EA030F02BF90EA020F0020F2
:100A8000704710F1000F91EA030F58BF994208BF59
:100A900090422CBFD8176FEAE37040F00100704716
:100AA0004FEA410C7FEA6C5C02D150EA013C07D16D
:100AB0004FEA430C7FEA6C5CD6D152EA033CD3D0B8
:100AC0005DF8040B704700BF8446104662468C46B2
:100AD0001946634600E000BF01B5FFF7B7FF0028E5
:100AE00048BF10F1000F01BD4DF808EDFFF7F4FF0E
:100AF0000CBF012000205DF808FB00BF4DF808ED99
:100B0000FFF7EAFF34BF012000205DF808FB00BFBB
:100B10004DF808EDFFF7E0FF94BF012000205DF8DD
:100B200008FB00BF4DF808EDFFF7CEFF94BF012092
:100B300000205DF808FB00BF4DF808EDFFF7C4FF8B
:100B400034BF012000205DF808FB00BF4FEA410CD4
:100B50007FEA6C5C02D150EA013C0AD14FEA430CB7
:100B60007FEA6C5C02D152EA033C02D14FF00000F4
:100B700070474FF0010070474FEA410212F5001232
:100B800015D211D56FF47873B3EB625212D94FEAD4
:100B9000C12343F0004343EA505311F0004F23FABE
:100BA00002F018BF404270474FF00000704750EA13
:100BB000013005D111F0004008BF6FF000407047D0
:100BC0004FF00000704700BF80F0004002E000BF1F
:100BD00081F0004142001FBF5FEA410392EA030F28
:100BE0007FEA226C7FEA236C6AD04FEA1262D2EB72
:100BF0001363C1BFD218414048404140B8BF5B4277
:100C0000192B88BF704710F0004F40F4000020F00F
:100C10007F4018BF404211F0004F41F4000121F025
:100C20007F4118BF494292EA030F3FD0A2F101026F
:100C300041FA03FC10EB0C00C3F1200301FA03F1AD
:100C400000F0004302D5494260EB4000B0F5000FD0
:100C500013D3B0F1807F06D340084FEA310102F18F
:100C60000102FE2A51D2B1F1004F40EBC25008BF41
:100C700020F0010040EA03007047490040EB00000B
:100C8000013A28BFB0F5000FEDD2B0FA80FCACF10C
:100C9000080CB2EB0C0200FA0CF0AABF00EBC25039
:100CA00052421843BCBFD0401843704792F0000F27
:100CB00081F4000106BF80F400000132013BB5E77A
:100CC0004FEA41037FEA226C18BF7FEA236C21D0F0
:100CD00092EA030F04D092F0000F08BF0846704755
:100CE00090EA010F1CBF0020704712F07F4F04D123
:100CF000400028BF40F00040704712F100723CBF36
:100D000000F50000704700F0004343F0FE4040F45F
:100D1000000070477FEA226216BF08467FEA23631D
:100D20000146420206BF5FEA412390EA010F40F408
:100D3000800070474FF0000304E000BF10F0004354
:100D400048BF40425FEA000C08BF704743F096433B
:100D500001464FF000001CE050EA010208BF704756
:100D60004FF000030AE000BF50EA010208BF7047DD
:100D700011F0004302D5404261EB41015FEA010CF2
:100D800002BF84460146002043F0B64308BFA3F1EA
:100D90008053A3F50003BCFA8CF2083AA3EBC253CC
:100DA00010DB01FA02FC634400FA02FCC2F12002EB
:100DB000BCF1004F20FA02F243EB020008BF20F022
:100DC0000100704702F1200201FA02FCC2F1200288
:100DD00050EA4C0021FA02F243EB020008BF20EA7D
:100DE000DC7070477BB972B90029BEBF00204FF09C
:100DF000004106E008BF00281CBF6FF000414FF023
:100E0000FF3000F0D3B9ADF1080C6DE904CE002934
:100E100009DB002B1ADB00F04DF8DDF804E0DDE91A
:100E2000022304B07047404261EB4101002B1BDB01
:100E300000F040F8DDF804E0DDE9022304B04042B0
:100E400061EB4101524263EB43037047524263EB53
:100E5000430300F02FF8DDF804E0DDE9022304B0DD
:100E6000404261EB41017047524263EB430300F0A3
:100E700021F8DDF804E0DDE9022304B0524263EB1F
:100E80004303704753B94AB9002908BF00281CBF63
:100E90004FF0FF314FF0FF3000F088B9ADF1080C92
:100EA0006DE904CE00F006F8DDF804E0DDE9022388
:100EB00004B070472DE9F047089D8E4604468846E9
:100EC000002B4AD18A42174662D9B2FA82F64EB155
:100ED000C6F1200301FA06F820FA03F3B74043EA0B
:100EE0000808B4404FEA174E1FFA87FCB8FBFEF122
:100EF000230C0EFB118843EA084301FB0CF29A42D3
:100F000009D9FB1801F1FF3080F0EA809A4240F2E3
:100F1000E78002393B449A1AA3B2B2FBFEF00EFB03
:100F2000102243EA024300FB0CFC9C4509D9FB1844
:100F300000F1FF3280F0D6809C4540F2D3803B44E4
:100F4000023840EA0140A3EB0C0300211DB1F3403D
:100F50000022C5E90032BDE8F0878B4205D90DB10A
:100F6000C5E9000100210846F5E7B3FA83F100293D
:100F700046D1734502D3824200F20581841A6EEB9A
:100F8000030201209046002DE5D0C5E90048E2E7C4
:100F9000002A00F09080B2FA82F6002E40F0A48081
:100FA0008A1A030C4FEA174E80B2BCB20121B2FB81
:100FB000FEFC0EFB1C2243EA024304FB0CF29A42A5
:100FC00007D9FB180CF1FF3802D29A4200F2E080F8
:100FD000C4469B1AB3FBFEF20EFB123340EA0343F6
:100FE00002FB04F49C4207D9FB1802F1FF3002D245
:100FF0009C4200F2CA8002461B1B42EA0C40A5E755
:10100000C1F120068B4022FA06F71F430EFA01F4C5
:1010100020FA06F32EFA06FE4FEA1749234300FA98
:1010200001F81FFA87FCBEFBF9F01C0C09FB10EE5F
:1010300044EA0E4400FB0CFEA64502FA01F209D96F
:101040003C1900F1FF3A80F09C80A64540F299805F
:1010500002383C44A4EB0E041FFA83FEB4FBF9F300
:1010600009FB13444EEA044403FB0CFCA44508D9D5
:101070003C1903F1FF3E80F08280A4457FD9023BFA
:101080003C4443EA0040A4EB0C04A0FB02EC6445A2
:101090007346E14662D35FD05DB1B8EB030264EB07
:1010A000090404FA06F622FA01F31E43CC40C5E90E
:1010B000006400214FE7B1FBF2FC010C41EA0E4154
:1010C00080B240EA01423B4638463C46B846BE46FE
:1010D0002026B1FBF7F1A2EB080241EA0C4166E7DA
:1010E000014618E710462CE7C6F120022EFA02F35B
:1010F000B740B14020FA02F24FEA174E0A43B3FB61
:10110000FEF8BCB20EFB1833110C41EA034108FB98
:1011100004F9B04089454FEA104380B23ED97918AE
:1011200008F1FF3C01D289451FD8A1EB0901B1FBB1
:10113000FEF909FB04F80EFB191192B242EA0142D2
:10114000424529D2BA1809F1FF31C4D24245C2D270
:10115000A9F102013A44BEE7F0459DD2BEEB02037D
:101160006CEB070C0138E14696E7A7EB0909494407
:10117000A8F1020CB1FBFEF909FB04F8DBE77346AA
:101180007FE7504666E70846FDE63B44023A33E710
:10119000ACF1020C3B441CE749469CE7A1EB09017A
:1011A000C446B1FBFEF909FB04F8C4E7704700BF71
:1011B00080B400AF074B1B6803F48033B3F5803F66
:1011C0000CBF01230023DBB21846BD465DF8047B4B
:1011D000704700BF10E000E080B584B000AF034668
:1011E000FB71FB790C4A12680C49A1FB0212920CAC
:1011F00002FB03F3FB6007E0FFF7DAFF0346002B77
:1012000002D0FB68013BFB60FB68002BF4D100BF00
:1012100000BF1037BD4680BD4C01002083DE1B435C
:1012200080B483B000AF78607B685B6903F08003B3
:10123000802B0CBF01230023DBB218460C37BD46C0
:101240005DF8047B704780B483B000AF78607B6842
:101250005B6903F04003402B0CBF01230023DBB28A
:1012600018460C37BD465DF8047B704780B483B0E8
:1012700000AF78607B685B6903F00103012B0CBF52
:1012800001230023DBB218460C37BD465DF8047B12
:10129000704780B483B000AF78607B685B6903F00F
:1012A0000203022B0CBF01230023DBB218460C37CC
:1012B000BD465DF8047B704780B483B000AF7860B2
:1012C0007B689B6903F00203022B0CBF0123002300
:1012D000DBB218460C37BD465DF8047B704780B41E
:1012E00085B000AF78607B685B69FB60FB687B68FA
:1012F0009B69FB60FB6800BF1437BD465DF8047B4B
:10130000704780B483B000AF786039607B681B6839
:1013100023F480623B681A437B681A6000BF0C3775
:10132000BD465DF8047B704780B483B000AF786041
:101330007B681B6843F480727B681A6000BF0C37BF
:10134000BD465DF8047B704780B483B000AF786021
:101350007B681B6843F400727B681A6000BF0C371F
:10136000BD465DF8047B704780B483B000AF786001
:101370007B681B69DBB218460C37BD465DF8047B01
:10138000704780B483B000AF78600B46FB707B6819
:101390001B6923F0FF02FB781A437B681A6100BFC8
:1013A0000C37BD465DF8047B704780B584B000AF54
:1013B0007860084611461A460346FB700B46BB7020
:1013C00013467B7041F28833FB6000BF7868FFF7FB
:1013D00073FF0346002B04D0FB685A1EFA60002BF3
:1013E000F4D1FB68002B01D101236AE07868FFF794
:1013F0009BFF41F28833FB6000BF7868FFF736FF40
:101400000346002B04D1FB685A1EFA60002BF4D16E
:10141000FB68002B01D1012353E0FB785B00DBB2BA
:1014200019467868FFF7ADFF41F28833FB6000BFD3
:101430007868FFF72EFF0346002B04D1FB685A1E85
:10144000FA60002BF4D1FB68002B01D1012338E0B6
:101450007868FFF744FFBB7819467868FFF791FF7B
:1014600041F28833FB6000BF7868FFF7D9FE03467E
:10147000002B04D1FB685A1EFA60002BF4D1FB68E4
:10148000002B01D101231CE07B7819467868FFF717
:1014900078FF41F28833FB6000BF7868FFF7C0FE39
:1014A0000346002B04D1FB685A1EFA60002BF4D1CE
:1014B000FB68002B01D1012303E07868FFF744FFAC
:1014C000002318461037BD4680BD90B587B000AFE9
:1014D000F8607B600B46FB721346BB7241F28833A7
:1014E0007B6100BFF868FFF7E7FE0346002B04D0DE
:1014F0007B695A1E7A61002BF4D17B69002B01D1E4
:101500000123E0E0F868FFF70FFF41F288337B61C9
:1015100000BFF868FFF7AAFE0346002B04D17B69E1
:101520005A1E7A61002BF4D17B69002B01D1012373
:10153000C9E0FB7A5B00DBB21946F868FFF721FFD0
:1015400041F288337B6100BFF868FFF7A2FE0346D3
:10155000002B04D17B695A1E7A61002BF4D17B6980
:10156000002B01D10123AEE0F868FFF7B8FE41F28D
:1015700088337B6100BFF868FFF752FE0346002BFB
:1015800004D17B695A1E7A61002BF4D17B69002B50
:1015900001D1012397E0BB7A1946F868FFF7F1FE05
:1015A00041F288337B6100BFF868FFF739FE0346DC
:1015B000002B04D17B695A1E7A61002BF4D17B6920
:1015C000002B01D101237EE0F868FFF7ADFE41F268
:1015D00088337B6100BFF868FFF748FE0346002BA5
:1015E00004D17B695A1E7A61002BF4D17B69002BF0
:1015F00001D1012367E097F90B305B005BB243F048
:1016000001035BB2DBB21946F868FFF7BAFE41F29C
:1016100088337B6100BFF868FFF73BFE0346002B71
:1016200004D17B695A1E7A61002BF4D17B69002BAF
:1016300001D1012347E03B8D012B04D10021F86843
:10164000FFF75FFE04E04FF48061F868FFF759FE92
:10165000F868FFF744FE00237B822FE041F28833D5
:101660007B6100BFF868FFF7EEFD0346002B04D155
:101670007B695A1E7A61002BF4D17B69002B01D162
:10168000012320E07A8A3B8D023B9A4203D100215C
:10169000F868FFF736FE7A8A3B8D013B9A4202D109
:1016A000F868FFF751FE7B8A7A68D418F868FFF76C
:1016B0005BFE034623707B8A01337B827A8A3B8DF3
:1016C0009A42CBD3002318461C37BD4690BD80B448
:1016D00083B000AF78607B681B6843F001027B68D1
:1016E0001A6000BF0C37BD465DF8047B704780B4BC
:1016F00083B000AF78607B681B6823F001027B68D1
:101700001A6000BF0C37BD465DF8047B704780B49B
:1017100083B000AF78607B681B6823F080027B6831
:101720001A6000BF0C37BD465DF8047B704780B47B
:1017300083B000AF78607B681B6823F040027B6851
:101740001A6000BF0C37BD465DF8047B704780B45B
:1017500083B000AF78607B68DB6823F001027B68B0
:10176000DA6000BF0C37BD465DF8047B704780B47B
:1017700083B000AF78607B685B6843F400727B687D
:101780005A6000BF0C37BD465DF8047B704780B4DB
:1017900083B000AF78607B685B6843F480627B68ED
:1017A0005A6000BF0C37BD465DF8047B704780B4BB
:1017B00083B000AF78607B685B6823F480627B68ED
:1017C0005A6000BF0C37BD465DF8047B704780B49B
:1017D00083B000AF78607B685B6843F480727B689D
:1017E0005A6000BF0C37BD465DF8047B704780B47B
:1017F00083B000AF78607B685B6903F08003802B67
:101800000CBF01230023DBB218460C37BD465DF840
:10181000047B704780B483B000AF78607B685B69FD
:1018200003F04003402B0CBF01230023DBB218461A
:101830000C37BD465DF8047B704780B483B000AFC1
:1018400078607B685B6903F00203022B0CBF012305
:101850000023DBB218460C37BD465DF8047B7047A9
:1018600080B483B000AF78607B685B6903F4806309
:10187000B3F5806F0CBF01230023DBB218460C3791
:10188000BD465DF8047B704780B483B000AF7860DC
:101890007B685B6903F01003102B0CBF012300234E
:1018A000DBB218460C37BD465DF8047B704780B448
:1018B00083B000AF78607B685B6903F48073B3F535
:1018C000807F0CBF01230023DBB218460C37BD46D6
:1018D0005DF8047B704780B483B000AF78607B68AC
:1018E0005B6903F40073B3F5007F0CBF0123002391
:1018F000DBB218460C37BD465DF8047B704780B4F8
:1019000083B000AF78607B685B6903F40063B3F574
:10191000006F0CBF01230023DBB218460C37BD4615
:101920005DF8047B704780B485B000AF78607B6859
:101930005B69FB60FB687B689B69FB60FB6800BFC1
:101940001437BD465DF8047B704780B483B000AFA8
:1019500078607B685B6923F480627B685A6100BFB2
:101960000C37BD465DF8047B704780B485B000AF8E
:1019700078607B685B69FB60FB687B681B6843F091
:1019800001027B681A6000BF1437BD465DF8047B16
:10199000704780B483B000AF78607B685B6923F4E4
:1019A00080727B685A6100BF0C37BD465DF8047BCE
:1019B000704780B483B000AF78607B685B6923F4C4
:1019C00000727B685A6100BF0C37BD465DF8047B2E
:1019D000704780B483B000AF78607B685B6923F4A4
:1019E00000627B685A6100BF0C37BD465DF8047B1E
:1019F000704780B483B000AF78607B689B6903F068
:101A0000040318460C37BD465DF8047B704780B46C
:101A100083B000AF78607B681B69DBB218460C3777
:101A2000BD465DF8047B704780B483B000AF78603A
:101A30000B46FB707B681B6923F0FF02FB781A439F
:101A40007B681A6100BF0C37BD465DF8047B7047A8
:101A500080B586B000AF244B9B681846FFF747FE61
:101A6000214B9B68184609F0C9FD1F4B9B6818461F
:101A7000FFF74DFE1C4B9B681846FFF758FE1A4BAC
:101A80009B681846FFF763FE3B4600221A605A60C7
:101A90009A60DA601A615A6100233B60134B7B60E5
:101AA0000023BB602423FB604FF480633B614FF451
:101AB00080437B610C4B9B683A461146184609F0FF
:101AC000D7FD094B9B681846FFF751FE064B9B68F4
:101AD0001846FFF77CFE044B9B681846FFF7F7FD9E
:101AE00000BF1837BD4680BD10450020A08601000C
:101AF00080B400AF0A4B00225A71094B4FF0FF32FD
:101B00001A60074B00221A71054B00229A71044B90
:101B10000022DA7100BFBD465DF8047B704700BF4C
:101B20001045002080B582B000AF7860094A7B681C
:101B30009360094B00221A70FFF7DAFF4FF48072AE
:101B4000002106480BF0A7FD002318460837BD46C4
:101B500080BD00BF104500201C450020104400201F
:101B600080B596B000AF784B01221A70774B9B6816
:101B70001846FFF762FE0346002B1AD0734B9B6892
:101B80001846FFF7D0FE714B9B681846FFF731FFF0
:101B90000346042B08D16D4B00221A716B4B9B68D6
:101BA0001846FFF7F4FD04E0684B9B681846FFF702
:101BB000EEFD664B9B681846FFF719FE0346002BA7
:101BC00052D0002387F85730604B1B6807F138006C
:101BD0005F4A1E210BF0AAFC07F1380319465D4845
:101BE00000F0D8FB594B1B6807F138005A4A1E21F8
:101BF0000BF09CFC07F138031946564800F0CAFB6D
:101C0000524B1A68554913465B0013440B44023388
:101C10001B7887F8573097F8573007F13800504A4B
:101C20001E210BF083FC07F138031946494800F0E8
:101C3000B1FB97F8573007F138004A4A1E210BF0E4
:101C400075FC07F138031946424800F0A3FB3F4BEF
:101C50009B6897F8572011461846FFF7E5FE3B4B67
:101C60009B681846FFF7A3FD384B9B681846FFF7A3
:101C7000D1FD0346002B4AD0344B9B681846FFF732
:101C8000C6FE034687F85630304B1B79DBB2002B7B
:101C90001FD12E4A97F85630537197F85630381D99
:101CA000314A32210BF042FC3B1D1946294800F015
:101CB00071FB264B01221A71244B1B68381D2B4ADD
:101CC00032210BF033FC3B1D1946224800F062FB29
:101CD0001DE01E4B1A68214913465B0013440B4458
:101CE00001331B78032B0AD1184B1A681B49134682
:101CF0005B0013440B44023397F856201A70134BC1
:101D000000221A71114B9B681846FFF750FD0F4BCC
:101D10009B681846FFF7B8FD0346002B0FD00B4B0E
:101D20009B681846FFF721FE084B00221A71074BEB
:101D30009B681846FFF73BFD034B00221A7000BF5B
:101D40005837BD4680BD00BF1C450020104500200F
:101D500030F80008001001404CF800082045002031
:101D600060F800087CF8000894F80008A4F800085F
:101D700080B500AF2149224800F00CFB214B002226
:101D80001A70214B9B681846FFF791FD0346002B04
:101D900004D01D4B9B681846FFF7FBFD1A4B9B6850
:101DA0001846FFF798FD0346002B04D0164B9B689E
:101DB0001846FFF7FEFD144B9B681846FFF750FDD1
:101DC0000346002B04D0104B9B681846FFF7BDFD5F
:101DD0000D4B9B681846FFF792FD0346002B04D07D
:101DE000094B9B681846FFF7F4FDFFF731FE064BE1
:101DF0009B681846FFF796FE00BF80BDB8F8000844
:101E0000001001401C4500201045002080B483B024
:101E100000AF03463960FB7197F90730002B0ADBEE
:101E20003B68DAB20C4997F907301201D2B20B4481
:101E300083F800230AE03B68DAB20849FB7903F033
:101E40000F03043B1201D2B20B441A7600BF0C37C9
:101E5000BD465DF8047B704700E100E000ED00E066
:101E600080B582B000AF78607B68013BB3F1807FC2
:101E700001D301230FE00A4A7B68013B53600F2125
:101E80004FF0FF30FFF7C2FF054B00229A60044B72
:101E900007221A60002318460837BD4680BD00BFE0
:101EA00010E000E080B400AF054B1B68044A43F02B
:101EB0000103136000BFBD465DF8047B704700BF9F
:101EC00010E000E080B500AF054B1B68054AA2FB9F
:101ED00003239B091846FFF7C3FF00BF80BD00BF67
:101EE0004C010020D34D621080B483B000AF786005
:101EF0007B681B6803F00203022B0CBF0123002345
:101F0000DBB218460C37BD465DF8047B704780B4E1
:101F100083B000AF78607B681B6803F00403042B78
:101F20000CBF01230023DBB218460C37BD465DF819
:101F3000047B704780B483B000AF78607B681B6817
:101F400003F00803082B0CBF01230023DBB2184663
:101F50000C37BD465DF8047B704780B483B000AF9A
:101F600078607B681B6803F02003202B0CBF0123E3
:101F70000023DBB218460C37BD465DF8047B704782
:101F800080B483B000AF78607B681B6803F0800387
:101F9000802B0CBF01230023DBB218460C37BD4653
:101FA0005DF8047B704780B485B000AF78607B68D3
:101FB0001B68FB60FB687B685B68FB60FB6800BFBD
:101FC0001437BD465DF8047B704780B485B000AF20
:101FD00078607B681B68FB60FB687B685B68FB6004
:101FE000FB6800BF1437BD465DF8047B704780B4C2
:101FF00085B000AF78607B681B68FB60FB687B681E
:102000005B68FB60FB6800BF1437BD465DF8047B6E
:10201000704780B489B000AF78607B680C33FB6098
:10202000FB6853E8003FBB60BB6843F02003FB61E3
:102030007B680C33FA69BA617B617969BA6941E8F6
:1020400000233B613B69002BE7D100BF00BF243771
:10205000BD465DF8047B704780B489B000AF7860FE
:102060007B680C33FB60FB6853E8003FBB60BB68D8
:1020700043F08003FB617B680C33FA69BA617B61D2
:102080007969BA6941E800233B613B69002BE7D1DC
:1020900000BF00BF2437BD465DF8047B704780B4A5
:1020A00089B000AF78607B680C33FB60FB6853E855
:1020B000003FBB60BB6823F02003FB617B680C33EF
:1020C000FA69BA617B617969BA6941E800233B61C9
:1020D0003B69002BE7D100BF00BF2437BD465DF848
:1020E000047B704780B489B000AF78607B680C33A4
:1020F000FB60FB6853E8003FBB60BB6823F08003D4
:10210000FB617B680C33FA69BA617B617969BA69F2
:1021100041E800233B613B69002BE7D100BF00BFD2
:102120002437BD465DF8047B704780B483B000AFB0
:1021300078607B68DB6803F02003202B0CBF012351
:102140000023DBB218460C37BD465DF8047B7047B0
:1021500080B483B000AF78607B68DB6803F08003F5
:10216000802B0CBF01230023DBB218460C37BD4681
:102170005DF8047B704780B483B000AF78607B6803
:102180005B68DBB218460C37BD465DF8047B7047D0
:1021900080B483B000AF78600B46FB70FA787B6840
:1021A0005A6000BF0C37BD465DF8047B70470000E5
:1021B00080B485B000AF78600023FB6015E0104963
:1021C000FA681346DB0013449B000B441B687A68D3
:1021D0009A4207D1FA681346DB0013449B00084A71
:1021E000134406E0FB680133FB60FB68012BE6DD6E
:1021F000002318461437BD465DF8047B704700BFC6
:102200000000002080B586B000AF0346B9607A6058
:10221000FB73BB685B680133BA68D268B3FBF2F149
:1022200001FB02F29B1A7B61BB689A687B699A4248
:102230000FD07868FFF733FFBB681A68BB685B682C
:102240001344FA7B1A707A69BB685A607868FFF7A2
:10225000E0FE00BF1837BD4680BD80B586B000AF38
:1022600078607868FFF7A4FF78617B69002B02D162
:102270004FF0FF3325E07B6904333B613B695A68CB
:102280003B699B689A4202D14FF0FF3319E07868AE
:10229000FFF705FF3B691A683B699B6813441B788D
:1022A000FB733B699B6801333A69D268B3FBF2F177
:1022B00001FB02F29A1A3B699A607868FFF7A9FE5F
:1022C000FB7B18461837BD4680BD80B586B000AF91
:1022D000786039607868FFF76BFF78617B69002B65
:1022E0002BD03B68002B28DB7B6914333B613B69B7
:1022F0005B6801333A69D268B3FBF2F101FB02F289
:102300009B1AFB607868FFF7CAFE00BF3B699A68BA
:10231000FB689A42FAD03B691A683B695B681344D0
:102320003A68D2B21A70FA683B695A607868FFF767
:1023300070FE7868FFF790FE00E000BF1837BD46DA
:1023400080BD80B584B000AF78607868FFF730FF5B
:10235000F860FB68002B01D1002317E0FB68043311
:10236000BB60BB68DB689AB2BB685B689BB2134416
:102370009AB2BB689B689BB2D31A9BB21A46BB68E1
:10238000DB68B2FBF3F101FB03F3D31A18461037F5
:10239000BD4680BD80B582B000AF7860396007E08F
:1023A0003B685A1C3A601B7819467868FFF78DFF26
:1023B0003B681B78002BF3D100BF00BF0837BD4638
:1023C00080BD80B586B000AF78607868FFF7F0FE1A
:1023D00078617B69002B68D07B6904333B617B6942
:1023E0001433FB607868FFF7B8FD0346002B2DD04F
:1023F0007868FFF79AFE0346002B27D07868FFF72E
:10240000BAFE0346FB727868FFF794FD0346002B83
:102410000BD17868FFF768FD0346002B05D178687B
:10242000FFF775FD0346002B09D07868FFF7DFFD45
:102430007868FFF7B8FD7868FFF7C7FD36E0FB7AEC
:102440007A6839691846FFF7DDFE2FE07868FFF7F4
:1024500097FD0346002B29D07868FFF779FE0346E5
:10246000002B23D0FB685A68FB689B689A4203D113
:102470007868FFF737FE19E0FB681A68FB689B680D
:1024800013441B78BB72FB689B680133FA68D268FF
:10249000B3FBF2F101FB02F29A1AFB689A60BB7A75
:1024A00019467868FFF774FE00E000BF1837BD4694
:1024B00080BD000080B400AFBFF34F8F00BF064B5C
:1024C000DB6803F4E0620449044B1343CB60BFF3C1
:1024D0004F8F00BF00BFFDE700ED00E00400FA05EC
:1024E00080B483B000AF786039607B683A689A61E5
:1024F00000BF0C37BD465DF8047B704780B483B0E5
:1025000000AF786039603B681A047B689A6100BF4D
:102510000C37BD465DF8047B7047000080B582B083
:1025200000AF786001F006FB03497868FFF732FFDF
:1025300000BF0837BD4680BDD4FE000880B500AF9F
:10254000024903480AF01EF900BF80BDE8000020E0
:10255000E400002080B582B000AF0E48FFF7F1FE26
:102560000346002B12D00B48FFF777FE0346FB71A2
:1025700001F02CFB0246FB791946104601F01CFCC9
:1025800001F024FB0346184601F039FC00BF083770
:10259000BD4680BD0014014080B588B000AFF86032
:1025A000B9607A6007F11403074A0A2118460AF055
:1025B000BDFF07F114031946F86801F0B1FC00BF34
:1025C0002037BD4680BD00BFE8FE000880B584B05E
:1025D00000AFF860B9607A60FFF76CFF80B59EB01D
:1025E00002AFF860B9607A600121B86801F05AFD65
:1025F000B866BB6E1B78612B3BD10023A7F8603017
:10260000454807F011F9002387F86F302CE097F860
:102610006F30414A32F81330A7F86030B7F96030B4
:1026200047F6FF72934208D197F86F3007F1100018
:102630003A4A50210AF07AFF0BE097F86F20B7F979
:10264000603007F1100000931346354A50210AF01C
:102650006DFF07F110031946F86801F061FC97F867
:102660006F30013387F86F3097F86F30072BCED972
:102670004AE0BB6E1B78302B1BD0BB6E1B78312B16
:1026800017D0BB6E1B78322B13D0BB6E1B78332B4D
:102690000FD0BB6E1B78342B0BD0BB6E1B78352B49
:1026A00007D0BB6E1B78362B03D0BB6E1B78372B45
:1026B0002AD1B86E0AF09AF97866174807F0B4F88C
:1026C000154A7B6E32F81330A7F86230B7F96230E2
:1026D00047F6FF72934207D107F110007B6E0F4A55
:1026E00050210AF023FF09E0B7F9623007F110002A
:1026F00000937B6E0A4A50210AF018FF07F110037D
:102700001946F86801F00CFC0649F86801F008FC6D
:1027100000BF7037BD4680BD485B0020F0FE00085A
:1027200004FF000814FF000880B586B000AFF86011
:10273000B9607A600121B86801F0B4FC7861786909
:102740000AF054F90346DAB20F4B1A700E4B1B789D
:10275000002B08D010210D48FFF7C2FE0C49F86885
:1027600001F0DEFB07E010210848FFF7C7FE09492A
:10277000F86801F0D5FB0849F86801F0D1FB00BF0B
:102780001837BD4680BD00BFC8410020000C024084
:1027900018FF000834FF000814FF000880B584B05B
:1027A00000AFF860B9607A600A4B1B78002B04D048
:1027B0000949F86801F0B4FB03E00849F86801F042
:1027C000AFFB0749F86801F0ABFB00BF1037BD460F
:1027D00080BD00BFC841002018FF000834FF00087A
:1027E00014FF000890B59DB000AFF860B9607A6042
:1027F0000121B86801F056FCB866002387F86730FD
:10280000484B07F110040FCB84E80F00BB6E1B7818
:10281000612B3DD1002387F86F3034E097F86F309B
:102820009B0070333B4453F8603CFB65F86D06F049
:102830000FFC034687F867300A2009F017FF97F965
:102840006730002B0CD10021F86D06F0B5FB97F82E
:102850006F3007F12000344A3C210AF067FE07E0A0
:1028600097F86F3007F12000304A3C210AF05EFEF5
:1028700007F120031946F86801F052FB97F86F3012
:10288000013387F86F3097F86F30032BC6D940E0DB
:10289000BB6E1B78302B0BD0BB6E1B78312B07D057
:1028A000BB6E1B78322B03D0BB6E1B78332B30D121
:1028B000B86E0AF09BF838663B6E9B0070333B4461
:1028C00053F8603CFB65F86D06F0C2FB034687F8E1
:1028D00067300A2009F0CAFE97F96730002B0BD148
:1028E0000021F86D06F068FB07F120003B6E0E4AF0
:1028F0003C210AF01BFE06E007F120003B6E0B4A6C
:102900003C210AF013FE07F120031946F86801F094
:1029100007FB0749F86801F003FB00BF7437BD46A9
:1029200090BD00BF80FF000850FF000868FF00084E
:1029300014FF000880B5A8B002AFF860B9607A60F3
:102940000121B86801F0AEFBC7F890000221B86819
:1029500001F0A8FBC7F88C000321B86801F0A2FBC6
:10296000C7F888000421B86801F09CFBC7F8840010
:10297000D7F890000AF03AF803467B67D7F88C0046
:102980000AF034F80346BB67D7F888000AF02EF83F
:102990000346FB67D7F884000AF028F80346C7F817
:1029A0008030002387F8973049E097F897309B00F4
:1029B00098333B4453F8243C9AB297F89730114629
:1029C000184607F00FF997F897309B0098333B446F
:1029D00053F8243C40F6B832934214DD97F8971030
:1029E00097F897309B0098333B4453F8243C97F872
:1029F000972007F11000019200930B46164A6421BC
:102A00000AF094FD10E097F8972097F897309B0014
:102A100098333B4453F8243C07F1100000931346CD
:102A20000E4A64210AF082FD07F110031946F86886
:102A300001F076FA97F89730013387F8973097F8D6
:102A40009730032BB1D90649F86801F069FA00BF45
:102A50009837BD4680BD00BF90FF0008CCFF00083E
:102A600014FF000880B5AEB002AFF860B9607A60BC
:102A70000121B86801F016FBC7F8A8000023A7F8E9
:102A8000A6300023A7F8A430D7F8A8301B78612B14
:102A900032D1002387F8AF3029E097F8AF301846DD
:102AA00007F004F90346A7F8A63097F8AF301846A8
:102AB00007F018F90346A7F8A43097F8AF10B7F855
:102AC000A630B7F8A42007F11400019200930B463A
:102AD0002D4A50210AF02AFD07F114031946F8681F
:102AE00001F01EFA97F8AF30013387F8AF3097F84E
:102AF000AF30032BD1D93FE0D7F8A8301B78302B6B
:102B00000ED0D7F8A8301B78312B09D0D7F8A830D1
:102B10001B78322B04D0D7F8A8301B78332B2BD15D
:102B2000D7F8A80009F062FFC7F8A000D7F8A030D6
:102B3000DBB2184607F0BAF80346A7F8A630D7F874
:102B4000A030DBB2184607F0CDF80346A7F8A43052
:102B5000B7F8A630B7F8A42007F1640001920093FB
:102B6000D7F8A030084A3C210AF0E0FC07F16403E2
:102B70001946F86801F0D4F90449F86801F0D0F971
:102B800000BFB037BD4680BDE4FF000814FF000859
:102B900080B58AB000AFF860B9607A600121B8688A
:102BA00001F080FA78620221B86801F07BFA38629D
:102BB0000321B86801F076FAF8610421B86801F0E1
:102BC00071FAB861786A09F011FF0346002B14BF4F
:102BD00001230023DBB2FB75386A09F007FF0346C7
:102BE000002B14BF01230023DBB2BB75F86909F089
:102BF000FDFE0346002B14BF01230023DBB27B75CF
:102C0000B86909F0F3FE0346002B14BF012300232B
:102C1000DBB23B753B7D7A7DB97DF87D07F0C4F86A
:102C2000FB7D002B04D11A49F86801F079F903E023
:102C30001849F86801F074F9BB7D002B04D11649DE
:102C4000F86801F06DF903E01449F86801F068F9DB
:102C50007B7D002B04D11249F86801F061F903E093
:102C60001049F86801F05CF93B7D002B04D10E4956
:102C7000F86801F055F903E00C49F86801F050F9E3
:102C80000B49F86801F04CF900BF2837BD4680BDFC
:102C9000040001081C000108340001084C00010870
:102CA000640001087C00010894000108AC000108E0
:102CB00014FF000890B593B000AFF860B9607A6077
:102CC0000121B86801F0EEF978640023FB6307F195
:102CD0003C03DC1C07F13C039A1C07F13C03591C24
:102CE00007F13C00234607F091F87B6C1B78612BC1
:102CF00034D197F83C30002B04D13449F86801F006
:102D00000FF903E03249F86801F00AF997F83D300D
:102D1000002B04D12F49F86801F002F903E02E4995
:102D2000F86801F0FDF897F83E30002B04D12B49EC
:102D3000F86801F0F5F803E02949F86801F0F0F8C7
:102D400097F83F30002B04D12649F86801F0E8F8E5
:102D500034E02549F86801F0E3F82FE07B6C1B783C
:102D6000302B0BD07B6C1B78312B07D07B6C1B7806
:102D7000322B03D07B6C1B78332B1FD1786C09F07E
:102D800035FE386407F13C023B6C13441B78002B82
:102D900007D107F114003B6C144A28210AF0C6FB46
:102DA00006E007F114003B6C114A28210AF0BEFB33
:102DB00007F114031946F86801F0B2F80D49F868F4
:102DC00001F0AEF800BF4C37BD4690BDC40001080D
:102DD000DC000108F40001080C01010824010108CD
:102DE0003C010108540101086C010108840101083B
:102DF0009C01010814FF000880B5A4B002AFF86080
:102E0000B9607A600121B86801F04CF9C7F8800018
:102E10000221B86801F046F9F8670321B86801F0AB
:102E200041F9B8670421B86801F03CF97867D7F830
:102E3000800009F0DBFD03467B66F86F09F0D6FDE4
:102E40000346BB66B86F09F0D1FD0346FB66786F99
:102E500009F0CCFD03463B67002387F887303AE052
:102E600097F887309B0088333B4453F8243C642B0D
:102E700007DD97F887309B0088333B44642243F892
:102E8000242C97F887309B0088333B4453F8243C2C
:102E9000DAB297F887301146184606F03FFF97F8E8
:102EA000872097F887309B0088333B4453F8243CB5
:102EB00007F11400009313460D4A50210AF036FB27
:102EC00007F114031946F86801F02AF897F88730DB
:102ED000013387F8873097F88730032BC0D905492D
:102EE000F86801F01DF800BF8837BD4680BD00BFFF
:102EF000B401010814FF000880B59AB002AFF86071
:102F0000B9607A600121B86801F0CCF8B865BB6D92
:102F10001B78612B27D1002387F85F301EE097F8DC
:102F20005F30184606F022FF034687F8533097F8C3
:102F30005F2097F8533007F1140000931346244A9A
:102F40003C210AF0F3FA07F114031946F86800F07F
:102F5000E7FF97F85F30013387F85F3097F85F300D
:102F6000032BDCD92BE0BB6D1B78302B0BD0BB6D5A
:102F70001B78312B07D0BB6D1B78322B03D0BB6D78
:102F80001B78332B1BD1B86D09F030FD78657B6D54
:102F9000DBB2184606F0EAFE034687F8533097F88E
:102FA000533007F1140000937B6D094A3C210AF06D
:102FB000BDFA07F114031946F86800F0B1FF05499E
:102FC000F86800F0ADFF00BF6037BD4680BD00BFB0
:102FD000B401010814FF000880B592B002AFF86098
:102FE000B9607A600121B86801F05CF8F863F86BA9
:102FF00009F0FCFCB863BB6B1BB2184606F0D6FDAB
:10300000BB6B07EE903AF8EEE77AB2EE047AC7EEC1
:10301000876A16EE900AFDF7A7FA02460B4607F1FB
:103020001000CDE90023094A28210AF07FFA07F1B0
:1030300010031946F86800F073FF0549F86800F0BE
:103040006FFF00BF4037BD4680BD00BFD001010803
:1030500014FF000880B596B002AFF860B9607A60DE
:1030600006F0B4FD0346A7F84E30B7F94E3007EE30
:10307000903AF8EEE77AB2EE047AC7EE876A16EE77
:10308000900AFDF771FA02460B4607F11000CDE9F0
:103090000023094A3C210AF049FA07F110031946B6
:1030A000F86800F03DFF0549F86800F039FF00BFFF
:1030B0005037BD4680BD00BFD001010814FF000895
:1030C00080B596B000AFF860B9607A600121B86849
:1030D00000F0E8FF7865786D09F088FC38653B6D95
:1030E000DBB2184606F0ACFF07F114003B6D094A4D
:1030F0003C210AF01BFA07F114031946F86800F0A6
:103100000FFF0549F86800F00BFF00BF5837BD46B8
:1031100080BD00BFF401010814FF000880B594B021
:1031200000AFF860B9607A60002387F84F3007F18C
:103130004F03184606F096FF97F84F3007F110003E
:10314000084A3C210AF0F2F907F110031946F86821
:1031500000F0E6FE0449F86800F0E2FE00BF5037D8
:10316000BD4680BDF401010814FF000880B598B089
:1031700000AFF860B9607A600121B86800F092FF92
:10318000F8650221B86800F08DFFB8650321B868C2
:1031900000F088FF78650421B86800F083FF386587
:1031A000F86D09F023FC034687F84F30B86D09F03D
:1031B0001DFC034687F84E30786D09F017FC034676
:1031C00087F84D30386D09F011FC034687F84C3014
:1031D00097F84C3097F84D2097F84E1097F84F001D
:1031E00006F046FE97F84F30002B0CD007F1100385
:1031F000224A3C2118460AF099F907F110031946B2
:10320000F86800F08DFE97F84E30002B0CD007F1D7
:1032100010031B4A3C2118460AF088F907F11003F5
:103220001946F86800F07CFE97F84D30002B0CD062
:1032300007F11003134A3C2118460AF077F907F109
:1032400010031946F86800F06BFE97F84C30002B1D
:103250000CD007F110030C4A3C2118460AF066F91D
:1032600007F110031946F86800F05AFE0749F8689C
:1032700000F056FE00BF6037BD4680BD0802010861
:103280001C020108300201084402010814FF000872
:1032900090B599B000AFF860B9607A600121B86864
:1032A00000F000FFB86507F15003DC1C07F1500384
:1032B0009A1C07F15003591C07F15000234606F0F1
:1032C00019FEBB6D1B78612B2CD1002387F85F3072
:1032D00023E097F85F3060333B4413F8103C002B39
:1032E00008D097F85F3007F114002A4A3C210AF011
:1032F0001DF907E097F85F3007F11400264A3C21DA
:103300000AF014F907F114031946F86800F008FEF2
:1033100097F85F30013387F85F3097F85F30032B01
:10332000D7D92FE0BB6D1B78302B0BD0BB6D1B7832
:10333000312B07D0BB6D1B78322B03D0BB6D1B78B4
:10334000332B1FD1B86D09F051FB786507F150029E
:103350007B6D13441B78002B07D007F114007B6DA5
:103360000C4A3C210AF0E2F806E007F114007B6DFC
:10337000094A3C210AF0DAF807F114031946F86803
:1033800000F0CEFD0549F86800F0CAFD00BF6437C3
:10339000BD4690BD580201086C02010814FF0008E8
:1033A00080B59AB000AFF860B9607A600121B86862
:1033B00000F078FE38660221B86800F073FEF86508
:1033C0000321B86800F06EFEB8650421B86800F00B
:1033D00069FE7865386E09F009FB0346DBB287F8B1
:1033E0005030F86D09F002FB0346DBB287F851302C
:1033F000B86D09F0FBFA0346DBB287F85230786DFE
:1034000009F0F4FA0346DBB287F8533097F850001E
:1034100097F8511097F8522097F8533006F09CFD1A
:10342000002387F867301AE097F8673068333B4429
:1034300013F8183C002B0DD097F8673007F11400F3
:103440000D4A3C210AF072F807F114031946F86896
:1034500000F066FD97F86730013387F8673097F81A
:103460006730032BE0D90549F86800F059FD00BF2B
:103470006837BD4680BD00BF8002010814FF000808
:1034800090B599B000AFF860B9607A600121B86872
:1034900000F008FEB86507F15003DC1C07F150038B
:1034A0009A1C07F15003591C07F15000234606F0FF
:1034B00097FDBB6D1B78612B2CD1002387F85F3003
:1034C00023E097F85F3060333B4413F8103C002B47
:1034D00008D097F85F3007F114002A4A3C210AF01F
:1034E00025F807E097F85F3007F11400264A3C21E1
:1034F0000AF01CF807F114031946F86800F010FDF3
:1035000097F85F30013387F85F3097F85F30032B0F
:10351000D7D92FE0BB6D1B78302B0BD0BB6D1B7840
:10352000312B07D0BB6D1B78322B03D0BB6D1B78C2
:10353000332B1FD1B86D09F059FA786507F15002A5
:103540007B6D13441B78002B07D007F114007B6DB3
:103550000C4A3C2109F0EAFF06E007F114007B6DFC
:10356000094A3C2109F0E2FF07F114031946F86803
:1035700000F0D6FC0549F86800F0D2FC00BF6437C3
:10358000BD4690BD800201089802010814FF0008A2
:1035900080B586B000AFF860B9607A600121B86884
:1035A00000F080FD7861786909F020FA0346002B6D
:1035B00014BF01230023DBB2FB74FB7C184606F02A
:1035C00063FDFB7C002B04D00849F86800F0A8FCE0
:1035D00003E00749F86800F0A3FC0649F86800F02A
:1035E0009FFC00BF1837BD4680BD00BFB002010878
:1035F000C402010814FF000880B586B000AFF8606F
:10360000B9607A600023FB7507F11703184606F0CE
:103610004DFDFB7D002B04D00849F86800F080FCCC
:1036200003E00749F86800F07BFC0649F86800F001
:1036300077FC00BF1837BD4680BD00BFB00201084F
:10364000C402010814FF0008F0B5A1B006AFF8608D
:10365000B9607A60374803F079FA0121B86800F060
:1036600021FD7866786E09F0C1F938663B6E002B53
:1036700023D1304BB3F900301E462E4BB3F9023044
:103680001A462C4BB3F9043019462A4BB3F90630CD
:103690001C46284BB3F908301D46264BB3F90A30B7
:1036A00007F11000049303950294019100923346B0
:1036B000214A502109F03AFF2EE03B6E012B14D134
:1036C0001C4BB3F9003019461A4BB3F902301A46B5
:1036D000184BB3F9043007F11000019300920B4628
:1036E000164A502109F022FF16E03B6E022B13D13F
:1036F000104BB3F9063019460E4BB3F908301A4691
:103700000C4BB3F90A3007F11000019300920B46FD
:103710000B4A502109F00AFF07F110031946F86817
:1037200000F0FEFB0749F86800F0FAFB00BF6C37B9
:10373000BD46F0BDB85A0020DC02010808030108AC
:103740001C03010814FF000880B594B002AFF860B4
:10375000B9607A60194802F0BDFE184BD3ED007ACB
:10376000FDEEE77A17EE903A1BB21946134BD3EDF4
:10377000017AFDEEE77A17EE903A1BB21A460F4B2C
:10378000D3ED027AFDEEE77A17EE903A1BB207F11D
:103790001400019300920B46094A322109F0C6FE3B
:1037A00007F114031946F86800F0BAFB0549F868F8
:1037B00000F0B6FB00BF4837BD4680BDD05A0020A0
:1037C0000803010814FF00082DE9B0439AB006AFC2
:1037D000F860B9607A603C4802F088FD0121B86861
:1037E00000F060FCF864F86C09F000F9B864BB6C98
:1037F000002B21D1344B1B681846FCF7B5FE04465C
:103800000D46314B9B681846FCF7AEFE8046894654
:103810002D4B5B681846FCF7A7FE02460B4607F1E6
:103820001400CDE90423CDE90289CDE90045274AFA
:10383000322109F07BFE37E0BB6C012B0FD1224B0C
:103840001B681846FCF790FE02460B4607F1140071
:10385000CDE900231E4A322109F068FE24E0BB6C4A
:10386000022B0FD1184B9B681846FCF77DFE0246D1
:103870000B4607F11400CDE90023164A322109F066
:1038800055FE11E0BB6C032B0ED10F4B5B68184645
:10389000FCF76AFE02460B4607F11400CDE900234F
:1038A0000D4A322109F042FE07F114031946F86867
:1038B00000F036FB0949F86800F032FB00BF5037D2
:1038C000BD46BDE8B08300BFC45A002034030108E0
:1038D00068030108780301088803010814FF000841
:1038E00080B58EB002AFF860B9607A60144802F01B
:1038F00037FD134B1B8807EE903AF8EE677A9FED81
:10390000117AC7EE876A16EE900AFCF72DFE024682
:103910000B4607F11000CDE900230B4A1E2109F0E8
:1039200005FE07F110031946F86800F0F9FA074997
:10393000F86800F0F5FA00BF3037BD4680BD00BF23
:10394000DC5A00200000C8429803010814FF000858
:103950002DE9B0439AB006AFF860B9607A605A4872
:1039600003F02AF80121B86800F09CFBF864F86CB9
:1039700009F03CF8B864BB6C002B3FD1524BB3F953
:10398000003007EE903AF8EEE77A9FED507AC7EEF6
:10399000876A16EE900AFCF7E7FD04460D464A4B8F
:1039A000B3F9023007EE903AF8EEE77A9FED487AE5
:1039B000C7EE876A16EE900AFCF7D6FD8046894668
:1039C000414BB3F9043007EE903AF8EEE77A9FEDF9
:1039D000407AC7EE876A16EE900AFCF7C5FD0246EC
:1039E0000B4607F11400CDE90423CDE90289CDE9A6
:1039F0000045384A322109F099FD55E0BB6C012B96
:103A000019D1314BB3F9003007EE903AF8EEE77A6E
:103A10009FED2E7AC7EE876A16EE900AFCF7A4FD9A
:103A200002460B4607F11400CDE900232A4A322151
:103A300009F07CFD38E0BB6C022B19D1224BB3F9A5
:103A4000023007EE903AF8EEE77A9FED217AC7EE62
:103A5000876A16EE900AFCF787FD02460B4607F1CF
:103A60001400CDE900231D4A322109F05FFD1BE05F
:103A7000BB6C032B18D1144BB3F9043007EE903A0A
:103A8000F8EEE77A9FED127AC7EE876A16EE900A93
:103A9000FCF76AFD02460B4607F11400CDE900234E
:103AA0000F4A322109F042FD07F114031946F86864
:103AB00000F036FA0B49F86800F032FA00BF5037D0
:103AC000BD46BDE8B08300BFE05A002000007A4444
:103AD0000000C842A8030108980301086803010810
:103AE0007803010814FF000880B400AF024B1846A9
:103AF000BD465DF8047B70475405010880B400AFF3
:103B00001C231846BD465DF8047B704780B584B021
:103B100000AF78600B46FB70FB78FB73FB7B1946AC
:103B20000348FEF7D2FB00BF1037BD4680BD00BF83
:103B30000014014080B582B000AF00F053F8786007
:103B40007B681D4ADA607B684FF400621A827B68EA
:103B500010229A807B684022DA807B6880221A815A
:103B60007B6820225A817B6801229A747B68134A01
:103B70001A60FFF7B9FF02467B685A61FFF7BEFF84
:103B800003461A467B681A83786800F086F8034675
:103B90000B4A13600A4B1B68002B01D1012307E07D
:103BA000074B1B68074A1A60074B01221A70002353
:103BB00018460837BD4680BD20520020D8030108B2
:103BC000205A00200D3B0008245A002080B400AF8A
:103BD000034B1B681846BD465DF8047B704700BF69
:103BE000205A002080B400AF114B40229A80104B25
:103BF0004022DA800E4B80221A810D4B0022DA60BF
:103C00000B4B00221A820A4B08225A81084B0122D0
:103C10009A74074B074A1A60054B00221A83044B1B
:103C200000225A61024B1846BD465DF8047B70477E
:103C3000285A00200404010880B485B000AF7860E1
:103C40007B685B69002B02D17B685B8900E0002305
:103C5000FB817B689B8803339A087B68DB8803338E
:103C60009B081A447B681B8903339B08D118FA8987
:103C700013465B001344DB0003339B08CA18FB891F
:103C800003339B08134412339BB29B009BB218462C
:103C90001437BD465DF8047B704780B588B000AF2F
:103CA00078600023FB617868FFF7C6FF0346BB61BD
:103CB0000023FB757B68DB68002B05D07B681B8AC3
:103CC0001A46BB69934201D9002371E07B68DB6827
:103CD0003B61BA690021386909F0DDFC3B69FB6191
:103CE0003B6910333B61FB693A69DA603B69383301
:103CF0003B61FB69DB68FB60FB683A691A617B68C2
:103D00009B88033323F003033A6913443B61FB6848
:103D10003A69DA617B68DB88033323F003033A698D
:103D200013443B617B685A69FB685A627B681A8B53
:103D3000FB689A857B681A8BFB68DA85FB683A69B1
:103D40005A607B681A89FB681A81FB7D002B08D0BA
:103D5000FB6893F8333043F00403DAB2FB6883F86E
:103D600033207B689B7C002B08D0FB6893F83330B2
:103D700043F02003DAB2FB6883F833207B689A882B
:103D8000FB681A83FB6800229A82FB680022DA82B1
:103D90007B68DA88FB685A84FB68002283F832204B
:103DA0007B681A68FB681A60FB6800229A86FB69C8
:103DB00018462037BD4680BD80B584B000AF78601E
:103DC0000B46FB707B68DB68FB60FB681033FA789E
:103DD0001146184600F08AFF034683F00103DBB268
:103DE000002B08D0FB6893F8333043F00103DAB2BC
:103DF000FB6883F8332000BF1037BD4680BD80B517
:103E000084B000AF78607B681B68002B00F0838073
:103E10007B68DB68FB60FB6893F8333003F00203D8
:103E2000002B55D1FB6893F8333043F00203DAB22C
:103E3000FB6883F83320FB681B681946786800F03C
:103E40007EFE45E0FB681033184600F027FF03466E
:103E5000FB72FB6893F8333003F00803002B05D0A6
:103E6000FB7A1946786800F0F5F92AE0FB6893F8C8
:103E700032301B2B0CD1FB7A5B2B09D1FB6893F8FA
:103E8000333043F00803DAB2FB6883F8332018E0DC
:103E9000FB7A184600F0AAFE0346002B05D0FB7AF9
:103EA0001946786800F086FA0BE0FB7A184600F0B5
:103EB000BDFE0346002B04D0FB7A1946786800F05B
:103EC00027FA786800F012FDFB68FA7A83F832204E
:103ED000FB681033184600F0C0FE0346002BB1D13A
:103EE000FB6893F8333003F00103002B14D0FB6818
:103EF00000221A84FB68DB69FA68128C13440022E2
:103F00001A70FB6893F8333023F00103DAB2FB68D0
:103F100083F8332000E000BF1037BD4680BD0000AD
:103F200080B584B000AF786039607B681B68002B77
:103F30003ED07B68DB68FB60FB689B8E7B81FB6807
:103F400093F8333003F01003002B02D1786800F0AF
:103F5000C1FDFB687A899A863968786800F0EFFDC0
:103F6000154B1B681946786800F0E9FDFB6893F86B
:103F7000333003F01003002B1BD1FB681B6819467C
:103F8000786800F0DCFDFB68DB691946786800F0B2
:103F9000D6FDFB681A8CFB681A86FB689B8E002294
:103FA0001946786800F0ECFD786800F09FFC00E0AE
:103FB00000BF1037BD4680BDF800002080B588B036
:103FC00000AF78607B68002B66D0354BFB60002328
:103FD000FB770023BB770023BB6100237B6147E0B5
:103FE0007B6901337B61BB7F002B02D00023BB7751
:103FF00029E0FB7C5C2B02D10123BB7738E0FB7C02
:10400000222B10D1FB7F002B14BF01230023DBB236
:1040100083F00103DBB2FB77FB7F03F00103FB7747
:104020000023FB740FE0FB7F83F00103DBB2002B66
:1040300009D0FB7C1946F86809F035FB0346002BD4
:1040400001D00023FB74FB7C002B09D1BB69002B42
:104050000EDDBB69013B7A6813441B78002B07D047
:10406000BB697A681344FA7C1A70BB690133BB617F
:104070007B697A6813441B78FB74FB7C002BAFD1FF
:10408000BB697A68134400221A70BB6901337A68ED
:10409000134400221A7000E000BF2037BD4680BDE7
:1040A0000804010880B584B000AF78600B467B80BF
:1040B0007B881946786800F020FF0346FB81FB8966
:1040C0004FF6FF72934203D0FB897A68134400E0F5
:1040D000002318461037BD4680BD80B584B000AFC0
:1040E00078600B467B807B881946786800F005FF76
:1040F0000346FB81FB894FF6FF72934203D0FB8995
:104100007A68134400E0002318461037BD4680BD8E
:1041100080B485B000AF78607B68002B03D07B68EB
:104120001B78002B01D1002319E00023FB60012341
:104130007B81FB687A6813441B78002B09D1FB68EC
:1041400001337A6813441B78002B06D07B89013336
:104150007B81FB680133FB60EBE700BF7B8918467E
:104160001437BD465DF8047B7047000080B586B00B
:1041700000AF78600B46FB707B68DB683B613B6996
:104180009B89002B5FD0FB78002B05D03B695A89B7
:104190003B699B899A4256D0FB7883F00103DBB2DE
:1041A000002B03D03B695B89002B4CD0786800F072
:1041B00091FC3B691B681946786800F0C0FCFB78ED
:1041C000002B06D03B695B8901339AB23B695A8167
:1041D00005E03B695B89013B9AB23B695A813B69C7
:1041E0001A1D3B695B891946104600F00DFE786187
:1041F0007B69002B01D1164B7B617869FCF748F88D
:104200000346FB813B69DB69FA897969184609F045
:10421000CEFA3B69DA69FB89134400221A703B69C4
:10422000FA891A843B69DB691946786800F087FCD3
:104230003B691A8C3B691A863B6900229A8678682A
:1042400000F054FB00E000BF1837BD4680BD00BF42
:104250000C04010890B585B000AF78600B46FB7088
:104260007B68DB68FB60FB783F2B48D9FB787E2BB3
:1042700045D8FB6893F8333023F00803DAB2FB68C3
:1042800083F83320FB78412B02D0FB78422B09D1F5
:10429000FB78412B0CBF01230023DBB21946786861
:1042A000FFF764FFFB78432B0FD1FB689B8E002B3D
:1042B0000BD0FB689B8E013B9AB2FB689A86124B2F
:1042C0001B681946786800F03AFCFB78442B16D13D
:1042D000FB689B8E1C46FB68DB691846FBF7D8FF22
:1042E00003469C420BD2FB689B8E01339AB2FB685B
:1042F0009A86064B1B681946786800F020FC00BFC0
:104300001437BD4690BD00BFFC0000200001002016
:1043100080B584B000AF78600B46FB707B68DB68CB
:10432000FB60FB681B8C0233FA68528C93423BDAC9
:10433000FB68DB691846FBF7ABFF0246FB689B8E08
:10434000D31ABB60FB68DA69BB680133D018FB681D
:10435000DA69BB68D118FB689B8E01331A4609F0F5
:1043600080F9FB681B8C01339AB2FB681A84FB68E6
:104370001B8E01339AB2FB681A86FB68DA69BB6848
:104380001344FA781A70FB689B8E002B05D0084BFB
:104390001B681946786800F0D2FB7B681B68FA78C6
:1043A00011467868984700E000BF1037BD4680BDD1
:1043B0000C01002080B584B000AF78600B46FB7024
:1043C0007B68DB68FB60FB6893F832300D2B02D111
:1043D000FB780A2B78D0FB6893F832300A2B02D195
:1043E000FB780D2B70D0FB780D2B02D0FB780A2BBD
:1043F00029D1786800F0DCFA354B1B6819467868DB
:1044000000F09DFBFB681B8C002B02D0786800F04D
:1044100065F8FB6800221A84FB68DB69FA68128C75
:10442000134400221A70FB6800221A86FB680022DF
:104430005A81FB6800229A86FB681B6819467868D7
:1044400000F07DFB41E0FB78082B02D0FB787F2B4E
:1044500033D1FB681B8C1A46FB689B8ED31A002B4A
:104460002BDD1C4B1B681946786800F068FB1A4B63
:104470001B681946786800F062FBFB68DB69184628
:10448000FBF706FF0246FB689B8ED31ABB60FB68F6
:10449000DA69BB68013BD018FB68DA69BB68D118E0
:1044A000FB689B8E01331A4609F0DBF8FB681B8C16
:1044B000013B9AB2FB681A8407E0FB78092B04D110
:1044C000786800F075FA00E000BF1037BD4680BD87
:1044D000F8000020000100201001002090B58FB0EE
:1044E00000AF78607B68DB68BB61012387F83730F9
:1044F00000233B630DE0BB69DA693B6B13441B7817
:10450000202B03D0002387F8373008E03B6B0133C2
:104510003B63BB691B8C1A463B6B9342EBDB97F802
:104520003730002B40F0FA80BB691A1DBB69DB698C
:104530001946104600F004FC0023FB620023BB6216
:10454000002387F8273000233B6230E0BB69DA693B
:104550003B6A13441B78FB75FB7D202B0FD1BB6A94
:10456000002B05D1BB69DA693B6A134400221A703B
:10457000FB6A002B18D0012387F8273014E0FB6A70
:10458000002B05D1BB69DA693B6A1344FB620BE07F
:10459000BB6A002B08D197F82730002B04D0BB69E9
:1045A000DA693B6A1344BB623B6A01333B62BB6915
:1045B0001B8C1A463B6A9342C8DBBB69DA69BB694C
:1045C0001B8C0133134400221A70FB6A002B00F08D
:1045D000A7800023FB6172E0BB69596AFA69134640
:1045E0005B001344DB000B445B681946F86AFBF779
:1045F000EFFD0346002B5FD1BB69596AFA69134688
:104600005B001344DB000B445B69002B5ED0BB698D
:10461000596AFA6913465B001344DB000B441B7BA9
:10462000002B02D0B86AFFF7C9FCBB6993F833309E
:1046300043F01003DAB2BB6983F83320BB6A002B66
:104640001AD03949B86AFBF7C3FD0346002B06D0E0
:104650003649B86AFBF7BCFD0346002B0CD1BB6999
:10466000596AFA6913465B001344DB000B44194690
:10467000786800F05DF815E0BB69596AFA6913467D
:104680005B001344DB000B445C69BB69596AFA693F
:1046900013465B001344DB000B441B691A46B96ADE
:1046A0007868A047BB6993F8333023F01003DAB27F
:1046B000BB6983F8332034E0FB690133FB61BB69DC
:1046C0009B8D1A46FB69934286DB00E000BF7B6846
:1046D0005B68002B1DD0FB6AFB60BB6A3B61BB695A
:1046E00093F8333043F01003DAB2BB6983F8332018
:1046F0007B685B6807F10C02114678689847BB69D4
:1047000093F8333023F01003DAB2BB6983F8332017
:1047100007E0F96A786800F05FFE02E000BF00E0A1
:1047200000BF3C37BD4690BD1004010814040108C9
:1047300080B582B000AF786039603B689B68002B21
:1047400010D07B681B680921786898473B689B6894
:104750001946786800F0F3F9044B1B68194678682D
:1047600000F0EDF900BF0837BD4680BDF80000201D
:1047700080B58EB000AFF860B9607A6000233B610D
:104780000023BB820023FB827868FBF781FD7862FF
:10479000BB68DB683B623B6A9B8D002B02D07B6A67
:1047A000002B08D1FB681A4607F1100393E80300B9
:1047B00082E8030095E000237B6383E03B6A596A4B
:1047C0007A6B13465B001344DB000B445B68FB61B0
:1047D000F869FBF75DFDB8613B6A9A6A7B6B13442D
:1047E0001A783B6A996A7B6B0B4422F00102D2B2C1
:1047F0001A70BA697B6A9A425ED3012387F8333014
:104800000023FB6210E07A68FB6A13441A78F969A6
:10481000FB6A0B441B789A4203D0002387F833309D
:1048200006E0FB6A0133FB62FA6A7B6A9A42EAD3CA
:1048300097F8333083F00103DBB2002B3ED13B6AA3
:104840009A6A7B6B13441A783B6A996A7B6B0B44B8
:1048500042F00102D2B21A70FB8A002B04D0BB8A4C
:104860001A46BB69934202D2BB699BB2BB82FB8AE8
:1048700001339BB2FB82FB8A012B02D1FB693B61B6
:104880001DE03B6A1B8CBB6210E03A69BB6A1344B3
:104890001A78F969BB6A0B441B789A4203D0BB6A49
:1048A0009BB2BB820BE0BB6A0133BB62BB8A1A4678
:1048B000BB6A9342E9D302E000BF00E000BF7B6B1C
:1048C00001337B633B6A9B8D1A467B6B9342FFF6F9
:1048D00075AFFB681A4607F1100393E8030082E8FE
:1048E0000300F8683837BD4680BD000080B588B049
:1048F00000AF78607B68DB687B617B6993F833305D
:1049000003F02003002B4AD07B69DA6907F10C031E
:1049100079681846FFF72CFF7B8A002B02D17B6950
:104920001B8C3B82204B1B681946786800F007F906
:104930007B699B8E01221946786800F021F97B691A
:104940001B8CFB610BE07B681B68F968FA690A4401
:104950001278114678689847FB690133FB613B8AFE
:104960001A46FB699342EED33B8ABB6107E07B6842
:104970001B68202178689847BB690133BB617B695C
:104980001B8E1A46BB699342F1D33A8A7B691A8619
:10499000064B1B681946786800F0D1F800E000BFAC
:1049A0002037BD4680BD00BF040100200801002063
:1049B00080B588B000AF78607B68DB68BB61BB699D
:1049C000DA6907F10C0379681846FFF7D1FE7B8A94
:1049D000002B78D07B8A012B04D03A8ABB691B8CD0
:1049E0009A4231D9BB69DB69F9683A8A184608F0FE
:1049F000DEFE7B8A012B09D1BB69DB693A8A13444D
:104A000020221A703B8A01339BB23B82BB69DB696F
:104A10003A8A134400221A70BB69DB69BA69128CA6
:104A20001146BA69928E8A1A13441946786800F0C2
:104A300086F83A8ABB691A84BB691A8CBB691A86E4
:104A4000BB6900229A863FE0786800F043F80023B3
:104A5000FB6121E0BB699A6AFB6913441B7803F090
:104A60000103002B14D0BB69596AFA6913465B0035
:104A70001344DB000B445B687B617969786800F064
:104A80005EF8134B1B681946786800F058F800E090
:104A900000BFFB690133FB61BB699B8D1A46FB6953
:104AA0009342D7DBBB691B681946786800F047F86A
:104AB000BB69DB691946786800F041F8BB691A8C5C
:104AC000BB691A8600E000BF2037BD4680BD00BF2D
:104AD000F800002090B587B000AF78607B68DB6895
:104AE0003B613B691B8E1C463B691B681846FBF704
:104AF000CFFB03462344FB607B681B680D2178686D
:104B0000984700237B6107E07B681B682021786859
:104B100098477B6901337B617A69FB689A42F3D3DA
:104B20007B681B680D21786898473B6900221A86CC
:104B30003B6900229A8600BF1C37BD4690BD80B5F8
:104B400084B000AF786039603868FBF7A1FBB860CB
:104B50000023FB600BE07B681B683968FA680A4435
:104B60001278114678689847FB680133FB60FA6851
:104B7000BB689A42EFD300BF00BF1037BD4680BD6F
:104B800080B586B000AF78600B467B8013467B70A3
:104B90007B88002B20D007F10C0300221A605A609A
:104BA0001A727B78002B04D00D4B1B6802331B78E4
:104BB00003E00C4B1B6802331B78FB757A88FB7D86
:104BC00007F10C00084908F0E7FC07F10C0319464F
:104BD0007868FFF7B4FF00E000BF1837BD4680BD1E
:104BE000FC000020000100201C04010880B483B0F8
:104BF00000AF0346FB71FB790D2B0BD0FB790A2B21
:104C000008D0FB79082B05D0FB79092B02D0FB7962
:104C10007F2B01D1012300E0002303F00103DBB26D
:104C200018460C37BD465DF8047B704780B483B0EE
:104C300000AF0346FB71FB791F2B04D9FB797E2B58
:104C400001D8012300E0002303F00103DBB2184682
:104C50000C37BD465DF8047B704780B483B000AF6D
:104C600078607B68DA887B689B889A4206D37B6889
:104C7000DA887B689B88D31A9BB209E07B681A8923
:104C80007B689B88D31A9AB27B68DB8813449BB2FB
:104C900018460C37BD465DF8047B704780B485B07C
:104CA00000AF78600023FB737B689A887B68DB88A1
:104CB0009A4214D07B681B687A68928813441B78E8
:104CC000FB737B689B8801339BB27A681289B3FBC4
:104CD000F2F101FB02F29B1A9AB27B689A80FB7B8D
:104CE00018461437BD465DF8047B704780B485B024
:104CF00000AF78600B46FB707B68DB8801339BB2AA
:104D00007A681289B3FBF2F101FB02F29B1AFB8174
:104D10007B689B88FA899A420BD07B681B687A680B
:104D2000D2881344FA781A707B68FA89DA800123F2
:104D300000E0002318461437BD465DF8047B704739
:104D400080B588B000AF786039603868FBF7A0FAAA
:104D5000B8617B689B881A46BB6901339A4201D2CD
:104D600000234DE03968786800F06AF824E07B6839
:104D70001B891946786800F047F878617869FBF775
:104D800087FA38617B681B687A69D31A1A463B69CF
:104D900013440133FB617B689B881A46FB69D31A75
:104DA000FB60BB690133FA689A420AD27B681B89AF
:104DB000013B9AB27B681A817B681B89002BD6D194
:104DC00000E000BF7B681B89002B0AD07B681A6853
:104DD000BB690133D0187B681B68FA69194608F073
:104DE00040FC7B681868BB6901331A46396808F0D3
:104DF000DEFC7B681B8901339AB27B681A81012330
:104E000018462037BD4680BD80B582B000AF7860BF
:104E10000B467B807B88002B04D07B681B897A88BB
:104E20009A4201D9002307E07B681B687A88114603
:104E30001846FFF737F9034618460837BD4680BDC8
:104E400080B586B000AF786039603B68002B4CD0ED
:104E50007B681B89002B48D000237B6101237B8268
:104E600013E07B681B687A8A11461846FFF735F90C
:104E7000786139687869FBF7ABF90346002B0AD0F3
:104E800000237B617B8A01337B827B681B897A8A62
:104E90009A42E6D900E000BF7B69002B27D07B68EF
:104EA0001B89013B9AB27B681A817A8A7B681B89CD
:104EB00001339A421DD07869FBF7EAF9F8607B6804
:104EC0009B881946FB6801337A691A447B681B6822
:104ED000D31ACB1ABB60FB6801337A691344BA68F2
:104EE0001946786908F0BDFB04E000BF02E000BF8E
:104EF00000E000BF1837BD4680BD80B485B000AF6C
:104F000078600B467B807B68002B02D07B88002B6F
:104F100002D14FF6FF7328E00023FB810123BB8100
:104F2000BA897B889A4213D0FB897A6813441B782C
:104F3000002B09D1BB890133BB81FB8901337A681E
:104F400013441B78002B05D0FB890133FB81E7E775
:104F500000BF00E000BFFB897A6813441B78002B78
:104F600001D0FB8901E04FF6FF7318461437BD46A8
:104F70005DF8047B704780B586B000AFF860B9601B
:104F80007A6000237B6110E07B699B00BA68134460
:104F90001B681946F868FBF71BF90346002B01D183
:104FA0007B6908E07B6901337B617A697B689A429F
:104FB000EADB4FF0FF3318461837BD4680BD0000CE
:104FC00080B586B000AFF860B9607A60B868FBF76A
:104FD0005FF903463B61B968F868FFF7B0FD00234D
:104FE0007B6106E00849F868FFF7A9FD7B6901339A
:104FF0007B617A683B69D31A7A699A42F2DB00BF17
:1050000000BF1837BD4680BD080401082DE9F043F4
:1050100095B000AFF860B9607A60FB68DB687B63CD
:105020007B6B9B8D002B0AD18C49F868FFF787FDBD
:105030008B4B1B681946F868FFF781FDBAE1B86829
:10504000FFF766F803467B867B8E002B40F0F680E8
:105050006B461E462023BB62BB6A013B7B62BB6A78
:105060000022984691464FF000024FF000034FEAAD
:10507000491343EAD8634FEA4812BB6A00221C4630
:1050800015464FF000024FF000036B0143EAD46372
:105090006201BB6A9B000733DB08DB00ADEB030D4D
:1050A0006B4603339B089B003B620023FB64002399
:1050B000BB642DE07B6B596ABA6C13465B001344EA
:1050C000DB000B441B68002B09D07B6B596ABA6C60
:1050D00013465B001344DB000B441B6800E0614B8C
:1050E000BB61FA6C396AB869FFF745FF78617B6983
:1050F000002B0ADAFA6CBB6A9A4206DAFB6C5A1C7D
:10510000FA643A6AB96942F82310BB6C0133BB6494
:105110007B6B9B8D1A46BB6C9342CBDB00237B647D
:1051200085E05149F868FFF70AFD3B6A7A6C53F84D
:1051300022301946F868FFF702FD4C49F868FFF77E
:10514000FEFC474B1B681946F868FFF7F8FC002384
:105150003B645DE07B6B596A3A6C13465B00134419
:10516000DB000B441B68002B09D07B6B596A3A6C3F
:1051700013465B001344DB000B441B6800E0394B13
:10518000FB613B6A7A6C53F822301946F869FBF7E9
:105190001FF80346002B38D13549F868FFF7CFFCDC
:1051A0007B6B596A3A6C13465B001344DB000B447B
:1051B0005B6810221946F868FFF702FF2D49F8686E
:1051C000FFF7BDFC7B6B596A3A6C13465B001344D6
:1051D000DB000B449B68002B0DD07B6B596A3A6C4B
:1051E00013465B001344DB000B449B681946F868C8
:1051F000FFF7A5FC03E02049F868FFF7A0FC184B77
:105200001B681946F868FFF79AFC3B6C01333B6456
:105210007B6B9B8D1A463B6C93429BDB104B1B6850
:105220001946F868FFF78BFC7B6C01337B647A6C62
:10523000FB6C9A42FFF675AFB546BBE07B8E012B47
:1052400040F0AE800121B868FEF72CFFF862002321
:1052500087F83F300023BB638FE000BF24040108C0
:10526000F80000203C0401084C0401085004010827
:10527000540401085C040108600401087B6B596A4E
:10528000BA6B13465B001344DB000B445B68F96A9E
:105290001846FAF79DFF0346002B6BD1012387F8D0
:1052A0003F304649F868FFF74AFC7B6B596ABA6B96
:1052B00013465B001344DB000B445B681946F86837
:1052C000FFF73DFC3E4B1B681946F868FFF737FCBB
:1052D0003C49F868FFF733FC7B6B596ABA6B13469D
:1052E0005B001344DB000B441B68002B09D07B6B75
:1052F000596ABA6B13465B001344DB000B441B680E
:1053000000E0314B1946F868FFF719FC2C4B1B687D
:105310001946F868FFF713FC7B6B596ABA6B1346A2
:105320005B001344DB000B449B68002B17D027491C
:10533000F868FFF704FC7B6B596ABA6B13465B0095
:105340001344DB000B449B681946F868FFF7F7FB32
:105350001B4B1B681946F868FFF7F1FB14E01C496A
:10536000F868FFF7ECFB164B1B681946F868FFF767
:10537000E6FB09E0BB6B0133BB637B6B9B8D1A467D
:10538000BB6B9342FFF67AAF97F83F3083F001038F
:10539000DBB2002B0ED0F96AF86800F01DF809E0C6
:1053A0000C49F868FFF7CBFB054B1B681946F868FA
:1053B000FFF7C5FB5437BD46BDE8F0836C04010818
:1053C000F8000020780401083C0401088404010866
:1053D000600401088C04010880B582B000AF7860D9
:1053E00039600B497868FFF7AAFB39687868FFF7DE
:1053F000A6FB08497868FFF7A2FB074B1B68194614
:105400007868FFF79CFB00BF0837BD4680BD00BF32
:10541000BC040108D0040108F800002080B483B067
:1054200000AF5B4B5B790133DAB2594B5A71584B81
:105430005B793B2B7AD9564B00225A71544B1B791E
:105440000133DAB2524B1A71514B1B793B2B6DD998
:105450004F4B00221A714E4BDB780133DAB24C4BC2
:10546000DA704B4BDB78172B60D9494B0022DA708E
:10547000474B1B780133DAB2454B1A70444B9B788B
:1054800003F00303DBB2002B1ED1414B9B78414A52
:10549000A2FB03125209642101FB02F29B1ADBB248
:1054A000002B0FD13A4B9B781A463A4B83FB0213E1
:1054B000D911D317CB1A4FF4C87101FB03F3D31AD8
:1054C000002B01D1012300E00023FB71304B5B78FE
:1054D000022B03D1FB791C33DBB204E02C4B5B784D
:1054E000013B2D4AD35CBB71294B1B78BA799A4298
:1054F0001CD2274B01221A70254B5B780133DAB29C
:10550000234B5A70224B5B780C2B0FD9204B012276
:105510005A701F4B9B780133DAB21D4B9A701C4BAB
:105520009B78632B02D91A4B00229A701B4B9B79F4
:105530000133DAB2194B9A71184B9B793B2B21D965
:10554000164B00229A71154B5B790133DAB2134B7B
:105550005A71124B5B793B2B14D9104B00225A71B4
:105560000E4B1B790133DAB20C4B1A710B4B1B79C2
:10557000172B07D9094B00221A71084B1B680133FE
:10558000064A136000BF0C37BD465DF8047B7047C8
:10559000140100201F85EB51F4070108445A002034
:1055A00080B500AF114B00229A70104B01225A7047
:1055B0000E4B01221A700D4B0022DA700B4B0022A9
:1055C0001A710A4B00225A71094B00221A60084BCB
:1055D00000221A71064B00225A71054B00229A7163
:1055E0000449054807F0CEF800BF80BD1401002033
:1055F000445A0020200100201C01002080B483B008
:1056000000AF786039607B683A689A6100BF0C37F8
:10561000BD465DF8047B704780B582B000AF78600E
:105620007B685A687B681B8919461046FFF7E6FFBE
:1056300000BF0837BD4680BD80B582B000AF78603E
:105640007868FFF7E9FF00BF0837BD4680BD80B42A
:1056500083B000AF786039607B683A689A6100BFB8
:105660000C37BD465DF8047B704780B483B000AF53
:10567000786039603B681A047B689A6100BF0C3718
:10568000BD465DF8047B704780B500AF0A4A1378C9
:1056900023F001031370084A137823F002031370F8
:1056A000054A137823F0FC03137000F0D5F800F0DE
:1056B000EBF800BF80BD00BF505A002080B500AF9E
:1056C0000C4B1B78C3F38503DBB2022B0CD0022BEF
:1056D0000DDC002B02D0012B03D008E000F00CF809
:1056E00006E000F051F803E000F070F800E000BFC1
:1056F00000BF80BD505A002080B500AF214B1B7801
:1057000003F00103DBB2002B20D01E4B1B7803F00B
:105710000203DBB2002B19D0002007F01DF803466E
:10572000002B2DD0174A137823F001031370154A6C
:10573000137823F00203137000F09AF800F0B0F829
:105740004FF4FA71002006F0F1FF19E0002007F095
:1057500003F80346002B13D00A4A137843F00103E1
:105760001370084A137843F00203137000F074F8C2
:1057700000F08AF84FF4FA71002006F0D7FFFFE737
:1057800000BF80BD505A002080B500AF4FF40061CB
:105790000D48FFF76AFF4FF480610B48FFF757FF92
:1057A0004FF4FA7006F062FF4FF480610648FFF78D
:1057B0005CFF4FF400610448FFF749FF4FF4FA70B3
:1057C00006F054FF00BF80BD0010024080B500AF5E
:1057D000204B1B7803F00103DBB2002B1FD01D4BC5
:1057E0001B7803F00203DBB2002B18D0002006F078
:1057F000B3FF0346002B2BD0164A137823F0010386
:105800001370144A137823F00203137000F030F879
:1058100000F046F83221002006F088FF18E0002052
:1058200006F09AFF0346002B12D00A4A137843F081
:1058300001031370074A137843F00203137000F05A
:105840000BF800F021F83221002006F06FFFFFE78F
:1058500000BF80BD505A002080B500AF4FF480617A
:105860000248FFF7F4FE00BF80BD00BF00100240F9
:1058700080B500AF4FF480610248FFF7F6FE00BF2D
:1058800080BD00BF0010024080B500AF4FF4006142
:105890000248FFF7DCFE00BF80BD00BF00100240E1
:1058A00080B500AF4FF400610248FFF7DEFE00BF95
:1058B00080BD00BF0010024080B500AF0249034820
:1058C00006F060FF00BF80BD3801002034010020D9
:1058D00080B582B000AF03460A46FB711346BB7128
:1058E000BB79FA7977210548FBF75FFD03461A4635
:1058F000034B9A7200BF0837BD4680BD005400407C
:10590000785A002080B584B002AF03463960FB713D
:105910001346BB71BB799BB2FA7900933B68772140
:105920000548FBF7D2FD03461A46044B9A7200BFA6
:105930000837BD4680BD00BF00540040785A0020A3
:1059400080B582B000AFB621E020FFF7C1FF012192
:10595000F220FFF7BDFF1021F520FFF7B9FF572117
:10596000F420FFF7B5FF0023FB71FB1D184600F084
:105970000FF8FB79602B02D0044B01229A72034B83
:105980009B7A18460837BD4680BD00BF785A002074
:1059900080B582B000AF786001227968D020FFF72F
:1059A000B1FF034B9B7A18460837BD4680BD00BF48
:1059B000785A002080B588B000AF3B1D1A221946E6
:1059C0008820FFF79FFF7B791BB21B021AB23B793D
:1059D0001BB213431BB29AB2544B1A80FB791BB211
:1059E0001B021AB2BB791BB213431AB24F4B5A8037
:1059F0007B7A1BB21B021AB23B7A1BB213431AB258
:105A00004A4B9A80FB7A1BB21B021AB2BB7A1BB2BA
:105A100013431BB29AB2454BDA807B7B1BB21B024D
:105A20001AB23B7B1BB213431AB2404B1A81FB7B69
:105A30001BB21B021AB2BB7B1BB213431AB23B4B05
:105A40005A817B7C1BB21B021AB23B7C1BB21343F4
:105A50001AB2364B9A81FB7C1BB21B021AB2BB7C7A
:105A60001BB213431AB2314BDA817B7D1BB21B028E
:105A70001AB23B7D1BB213431AB22C4B1A82FB7D28
:105A80001BB21B021AB2BB7D1BB213431AB2274BC7
:105A90005A827B7E1BB21B021AB23B7E1BB213439F
:105AA0001AB2224B9A82FB7E1BB21B021AB2BB7E39
:105AB0001BB213431AB21D4BDA827A7F1B4B1A7644
:105AC0003B1D07221946E120FFF71CFF7B791BB223
:105AD0001B021AB23B791BB213431AB2134B5A83FF
