:020000040800F2
:100000000000022069980008E9950008F1950008B1
:10001000F995000801960008099600080000000004
:100020000000000000000000000000001196000821
:100030001F960008000000002D9600083D9600085D
:10004000B9980008B9980008B9980008B99800084C
:10005000B9980008B9980008B9980008B99800083C
:10006000B9980008B9980008B9980008B99800082C
:10007000B9980008B9980008B9980008B99800081C
:10008000B9980008B9980008B9980008B99800080C
:10009000B9980008B9980008B9980008B9980008FC
:1000A000B9980008B9980008B9980008B9980008EC
:1000B000B9980008B9980008B9980008B9980008DC
:1000C000B99800085D96000869960008B99800087C
:1000D000B99800087596000889960008B998000834
:1000E000B9980008B9980008B9980008B9980008AC
:1000F000B9980008B9980008B9980008B99800089C
:10010000B9980008B9980008B9980008B99800088B
:10011000B9980008B9980008B9980008B99800087B
:1001200097960008B9980008B9980008B99800088F
:10013000B9980008B9980008B9980008B99800085B
:10014000B9980008B9980008B9980008B99800084B
:10015000B9980008B9980008B9980008A596000851
:10016000B9980008B9980008B9980008B99800082B
:10017000B9980008B9980008B99800080000000074
:08018000B9980008B9980008C5
:1001900010B5054C237833B9044B13B10448AFF3C1
:1001A00000800123237010BD0444002000000000E3
:1001B000A806010808B5034B1BB103490348AFF378
:1001C000008008BD0000000008440020A8060108C7
:1001D00010F8012B11F8013B012A28BF9A42F7D0F1
:1001E000D01A70470000000000000000000000006E
:1001F00001F0FF01102A2BDB10F0070F08D010F8D8
:10020000013B013A8B422DD010F0070F42B3F6D1DB
:10021000F0B441EA012141EA014122F007047FF0F4
:1002200000070023F0E80256083C85EA010586EA4B
:10023000010685FA47F5A3FA87F586FA47F6A5FA87
:1002400087F68EB9EED1F0BC01F0FF0102F0070293
:1002500032B110F8013B013A83EA010313B1F8D13E
:100260000020704701387047002D06BF354603381F
:10027000073815F0010F07D1013015F4807F02BF58
:10028000013015F4C03F0130F0BC0138704700BFA9
:10029000034613F8012B002AFBD1181A01387047C6
:1002A00081F0004102E000BF83F0004330B54FEA27
:1002B00041044FEA430594EA050F08BF90EA020F94
:1002C0001FBF54EA000C55EA020C7FEA645C7FEA27
:1002D000655C00F0E2804FEA5454D4EB5555B8BF4A
:1002E0006D420CDD2C4480EA020281EA030382EABB
:1002F000000083EA010180EA020281EA0303362D4D
:1003000088BF30BD11F0004F4FEA01314FF4801C1F
:100310004CEA113102D0404261EB410113F0004F31
:100320004FEA03334CEA133302D0524263EB4303E8
:1003300094EA050F00F0A780A4F10104D5F1200E86
:100340000DDB02FA0EFC22FA05F2801841F10001E1
:1003500003FA0EF2801843FA05F359410EE0A5F1B5
:1003600020050EF1200E012A03FA0EFC28BF4CF0E6
:10037000020C43FA05F3C01851EBE37101F000459C
:1003800007D54FF0000EDCF1000C7EEB00006EEBA9
:100390000101B1F5801F1BD3B1F5001F0CD3490833
:1003A0005FEA30004FEA3C0C04F101044FEA44528A
:1003B00012F5800F80F09A80BCF1004F08BF5FEA11
:1003C000500C50F1000041EB045141EA050130BDF1
:1003D0005FEA4C0C404141EB0101013C28BFB1F503
:1003E000801FE9D291F0000F04BF01460020B1FA4E
:1003F00081F308BF2033A3F10B03B3F120020CDA21
:100400000C3208DD02F1140CC2F10C0201FA0CF0FE
:1004100021FA02F10CE002F11402D8BFC2F1200C63
:1004200001FA02F120FA0CFCDCBF41EA0C01904019
:10043000E41AA2BF01EB0451294330BD6FEA040462
:100440001F3C1CDA0C340EDC04F11404C4F120024D
:1004500020FA04F001FA02F340EA030021FA04F35F
:1004600045EA030130BDC4F10C04C4F1200220FAB6
:1004700002F001FA04F340EA0300294630BD21FAF4
:1004800004F0294630BD94F0000F83F4801306BFBA
:1004900081F480110134013D4EE77FEA645C18BFAE
:1004A0007FEA655C29D094EA050F08BF90EA020F45
:1004B00005D054EA000C04BF1946104630BD91EA3D
:1004C000030F1EBF0021002030BD5FEA545C05D140
:1004D0004000494128BF41F0004130BD14F580047F
:1004E0003CBF01F5801130BD01F0004545F0FE41F3
:1004F00041F470014FF0000030BD7FEA645C1ABF28
:10050000194610467FEA655C1CBF0B46024650EA5E
:10051000013406BF52EA033591EA030F41F400218A
:1005200030BD00BF90F0000F04BF0021704730B510
:100530004FF4806404F132044FF000054FF00001E5
:1005400050E700BF90F0000F04BF0021704730B5A6
:100550004FF4806404F1320410F0004548BF40427B
:100560004FF000013EE700BF42004FEAE2014FEAD0
:1005700031014FEA02701FBF12F07F4393F07F4FAB
:1005800081F06051704732F07F4208BF704793F0AE
:100590007F4F04BF41F40021704730B54FF46074C1
:1005A00001F0004521F000411CE700BF50EA0102C4
:1005B00008BF704730B54FF000050AE050EA01026D
:1005C00008BF704730B511F0004502D5404261EBDD
:1005D00041014FF4806404F132045FEA915C3FF41E
:1005E000D8AE4FF003025FEADC0C18BF03325FEABB
:1005F000DC0C18BF033202EBDC02C2F1200300FA6C
:1006000003FC20FA02F001FA03FE40EA0E0021FA90
:1006100002F11444BDE600BF70B54FF0FF0C4CF47E
:10062000E06C1CEA11541DBF1CEA135594EA0C0F30
:1006300095EA0C0F00F0DEF82C4481EA030621EA6B
:100640004C5123EA4C5350EA013518BF52EA0335A6
:1006500041F4801143F4801338D0A0FB02CE4FF058
:100660000005E1FB02E506F00042E0FB03E54FF088
:100670000006E1FB03569CF0000F18BF4EF0010E80
:10068000A4F1FF04B6F5007F64F5407404D25FEA7C
:100690004E0E6D4146EB060642EAC62141EA55512F
:1006A0004FEAC52040EA5E504FEACE2EB4F1FD0C71
:1006B00088BFBCF5E06F1ED8BEF1004F08BF5FEAEF
:1006C000500E50F1000041EB045170BD06F00046A1
:1006D00046EA010140EA020081EA0301B4EB5C044E
:1006E000C2BFD4EB0C0541EA045170BD41F4801146
:1006F0004FF0000E013C00F3AB8014F1360FDEBF6B
:10070000002001F0004170BDC4F10004203C35DA46
:100710000C341BDC04F11404C4F1200500FA05F3C9
:1007200020FA04F001FA05F240EA020001F000426A
:1007300021F0004110EBD37021FA04F642EB0601E0
:100740005EEA430E08BF20EAD37070BDC4F10C040A
:10075000C4F1200500FA04F320FA05F001FA04F2CE
:1007600040EA020001F0004110EBD37041F10001BA
:100770005EEA430E08BF20EAD37070BDC4F12005C5
:1007800000FA05F24EEA020E20FA04F301FA05F22D
:1007900043EA020321FA04F001F0004121FA04F2D5
:1007A00020EA020000EBD3705EEA430E08BF20EAA5
:1007B000D37070BD94F0000F0FD101F000464000DF
:1007C00041EB010111F4801F08BF013CF7D041EA61
:1007D000060195F0000F18BF704703F00046520065
:1007E00043EB030313F4801F08BF013DF7D043EA36
:1007F0000603704794EA0C0F0CEA135518BF95EAEC
:100800000C0F0CD050EA410618BF52EA4306D1D172
:1008100081EA030101F000414FF0000070BD50EA91
:10082000410606BF1046194652EA430619D094EA1B
:100830000C0F02D150EA013613D195EA0C0F05D105
:1008400052EA03361CBF104619460AD181EA030159
:1008500001F0004141F0FE4141F470014FF0000011
:1008600070BD41F0FE4141F4780170BD70B54FF0AC
:10087000FF0C4CF4E06C1CEA11541DBF1CEA13552C
:1008800094EA0C0F95EA0C0F00F0A7F8A4EB05040E
:1008900081EA030E52EA03354FEA013100F0888005
:1008A0004FEA03334FF0805545EA131343EA1263CE
:1008B0004FEA022245EA111545EA10654FEA002683
:1008C0000EF000419D4208BF964244F1FD0404F53C
:1008D000407402D25B084FEA3202B61A65EB030598
:1008E0005B084FEA32024FF480104FF4002CB6EB55
:1008F000020E75EB030E22BFB61A754640EA0C00D5
:100900005B084FEA3202B6EB020E75EB030E22BF14
:10091000B61A754640EA5C005B084FEA3202B6EB55
:10092000020E75EB030E22BFB61A754640EA9C0014
:100930005B084FEA3202B6EB020E75EB030E22BFE4
:10094000B61A754640EADC0055EA060E18D04FEAA2
:10095000051545EA16754FEA06164FEAC30343EA42
:1009600052734FEAC2025FEA1C1CC0D111F4801F0F
:100970000BD141EA00014FF000004FF0004CB6E708
:1009800011F4801F04BF01430020B4F1FD0C88BFA7
:10099000BCF5E06F3FF6AFAEB5EB030C04BFB6EBB2
:1009A000020C5FEA500C50F1000041EB045170BDA5
:1009B0000EF0004E4EEA113114EB5C04C2BFD4EBD2
:1009C0000C0541EA045170BD41F480114FF0000E56
:1009D000013C90E645EA060E8DE60CEA135594EAD2
:1009E0000C0F08BF95EA0C0F3FF43BAF94EA0C0FD5
:1009F0000AD150EA01347FF434AF95EA0C0F7FF44A
:100A000025AF104619462CE795EA0C0F06D152EA9D
:100A100003353FF4FDAE1046194622E750EA410681
:100A200018BF52EA43067FF4C5AE50EA41047FF492
:100A30000DAF52EA43057FF4EBAE12E74FF0FF3CF7
:100A400006E000BF4FF0010C02E000BF4FF0010CC8
:100A50004DF804CD4FEA410C7FEA6C5C4FEA430C41
:100A600018BF7FEA6C5C1BD001B050EA410C0CBF90
:100A700052EA430C91EA030F02BF90EA020F0020F2
:100A8000704710F1000F91EA030F58BF994208BF59
:100A900090422CBFD8176FEAE37040F00100704716
:100AA0004FEA410C7FEA6C5C02D150EA013C07D16D
:100AB0004FEA430C7FEA6C5CD6D152EA033CD3D0B8
:100AC0005DF8040B704700BF8446104662468C46B2
:100AD0001946634600E000BF01B5FFF7B7FF0028E5
:100AE00048BF10F1000F01BD4DF808EDFFF7F4FF0E
:100AF0000CBF012000205DF808FB00BF4DF808ED99
:100B0000FFF7EAFF34BF012000205DF808FB00BFBB
:100B10004DF808EDFFF7E0FF94BF012000205DF8DD
:100B200008FB00BF4DF808EDFFF7CEFF94BF012092
:100B300000205DF808FB00BF4DF808EDFFF7C4FF8B
:100B400034BF012000205DF808FB00BF4FEA410CD4
:100B50007FEA6C5C02D150EA013C0AD14FEA430CB7
:100B60007FEA6C5C02D152EA033C02D14FF00000F4
:100B700070474FF0010070474FEA410212F5001232
:100B800015D211D56FF47873B3EB625212D94FEAD4
:100B9000C12343F0004343EA505311F0004F23FABE
:100BA00002F018BF404270474FF00000704750EA13
:100BB000013005D111F0004008BF6FF000407047D0
:100BC0004FF00000704700BF80F0004002E000BF1F
:100BD00081F0004142001FBF5FEA410392EA030F28
:100BE0007FEA226C7FEA236C6AD04FEA1262D2EB72
:100BF0001363C1BFD218414048404140B8BF5B4277
:100C0000192B88BF704710F0004F40F4000020F00F
:100C10007F4018BF404211F0004F41F4000121F025
:100C20007F4118BF494292EA030F3FD0A2F101026F
:100C300041FA03FC10EB0C00C3F1200301FA03F1AD
:100C400000F0004302D5494260EB4000B0F5000FD0
:100C500013D3B0F1807F06D340084FEA310102F18F
:100C60000102FE2A51D2B1F1004F40EBC25008BF41
:100C700020F0010040EA03007047490040EB00000B
:100C8000013A28BFB0F5000FEDD2B0FA80FCACF10C
:100C9000080CB2EB0C0200FA0CF0AABF00EBC25039
:100CA00052421843BCBFD0401843704792F0000F27
:100CB00081F4000106BF80F400000132013BB5E77A
:100CC0004FEA41037FEA226C18BF7FEA236C21D0F0
:100CD00092EA030F04D092F0000F08BF0846704755
:100CE00090EA010F1CBF0020704712F07F4F04D123
:100CF000400028BF40F00040704712F100723CBF36
:100D000000F50000704700F0004343F0FE4040F45F
:100D1000000070477FEA226216BF08467FEA23631D
:100D20000146420206BF5FEA412390EA010F40F408
:100D3000800070474FF0000304E000BF10F0004354
:100D400048BF40425FEA000C08BF704743F096433B
:100D500001464FF000001CE050EA010208BF704756
:100D60004FF000030AE000BF50EA010208BF7047DD
:100D700011F0004302D5404261EB41015FEA010CF2
:100D800002BF84460146002043F0B64308BFA3F1EA
:100D90008053A3F50003BCFA8CF2083AA3EBC253CC
:100DA00010DB01FA02FC634400FA02FCC2F12002EB
:100DB000BCF1004F20FA02F243EB020008BF20F022
:100DC0000100704702F1200201FA02FCC2F1200288
:100DD00050EA4C0021FA02F243EB020008BF20EA7D
:100DE000DC7070477BB972B90029BEBF00204FF09C
:100DF000004106E008BF00281CBF6FF000414FF023
:100E0000FF3000F0D3B9ADF1080C6DE904CE002934
:100E100009DB002B1ADB00F04DF8DDF804E0DDE91A
:100E2000022304B07047404261EB4101002B1BDB01
:100E300000F040F8DDF804E0DDE9022304B04042B0
:100E400061EB4101524263EB43037047524263EB53
:100E5000430300F02FF8DDF804E0DDE9022304B0DD
:100E6000404261EB41017047524263EB430300F0A3
:100E700021F8DDF804E0DDE9022304B0524263EB1F
:100E80004303704753B94AB9002908BF00281CBF63
:100E90004FF0FF314FF0FF3000F088B9ADF1080C92
:100EA0006DE904CE00F006F8DDF804E0DDE9022388
:100EB00004B070472DE9F047089D8E4604468846E9
:100EC000002B4AD18A42174662D9B2FA82F64EB155
:100ED000C6F1200301FA06F820FA03F3B74043EA0B
:100EE0000808B4404FEA174E1FFA87FCB8FBFEF122
:100EF000230C0EFB118843EA084301FB0CF29A42D3
:100F000009D9FB1801F1FF3080F0EA809A4240F2E3
:100F1000E78002393B449A1AA3B2B2FBFEF00EFB03
:100F2000102243EA024300FB0CFC9C4509D9FB1844
:100F300000F1FF3280F0D6809C4540F2D3803B44E4
:100F4000023840EA0140A3EB0C0300211DB1F3403D
:100F50000022C5E90032BDE8F0878B4205D90DB10A
:100F6000C5E9000100210846F5E7B3FA83F100293D
:100F700046D1734502D3824200F20581841A6EEB9A
:100F8000030201209046002DE5D0C5E90048E2E7C4
:100F9000002A00F09080B2FA82F6002E40F0A48081
:100FA0008A1A030C4FEA174E80B2BCB20121B2FB81
:100FB000FEFC0EFB1C2243EA024304FB0CF29A42A5
:100FC00007D9FB180CF1FF3802D29A4200F2E080F8
:100FD000C4469B1AB3FBFEF20EFB123340EA0343F6
:100FE00002FB04F49C4207D9FB1802F1FF3002D245
:100FF0009C4200F2CA8002461B1B42EA0C40A5E755
:10100000C1F120068B4022FA06F71F430EFA01F4C5
:1010100020FA06F32EFA06FE4FEA1749234300FA98
:1010200001F81FFA87FCBEFBF9F01C0C09FB10EE5F
:1010300044EA0E4400FB0CFEA64502FA01F209D96F
:101040003C1900F1FF3A80F09C80A64540F299805F
:1010500002383C44A4EB0E041FFA83FEB4FBF9F300
:1010600009FB13444EEA044403FB0CFCA44508D9D5
:101070003C1903F1FF3E80F08280A4457FD9023BFA
:101080003C4443EA0040A4EB0C04A0FB02EC6445A2
:101090007346E14662D35FD05DB1B8EB030264EB07
:1010A000090404FA06F622FA01F31E43CC40C5E90E
:1010B000006400214FE7B1FBF2FC010C41EA0E4154
:1010C00080B240EA01423B4638463C46B846BE46FE
:1010D0002026B1FBF7F1A2EB080241EA0C4166E7DA
:1010E000014618E710462CE7C6F120022EFA02F35B
:1010F000B740B14020FA02F24FEA174E0A43B3FB61
:10110000FEF8BCB20EFB1833110C41EA034108FB98
:1011100004F9B04089454FEA104380B23ED97918AE
:1011200008F1FF3C01D289451FD8A1EB0901B1FBB1
:10113000FEF909FB04F80EFB191192B242EA0142D2
:10114000424529D2BA1809F1FF31C4D24245C2D270
:10115000A9F102013A44BEE7F0459DD2BEEB02037D
:101160006CEB070C0138E14696E7A7EB0909494407
:10117000A8F1020CB1FBFEF909FB04F8DBE77346AA
:101180007FE7504666E70846FDE63B44023A33E710
:10119000ACF1020C3B441CE749469CE7A1EB09017A
:1011A000C446B1FBFEF909FB04F8C4E7704700BF71
:1011B00080B400AF074B1B6803F48033B3F5803F66
:1011C0000CBF01230023DBB21846BD465DF8047B4B
:1011D000704700BF10E000E080B584B000AF034668
:1011E000FB71FB790C4A12680C49A1FB0212920CAC
:1011F00002FB03F3FB6007E0FFF7DAFF0346002B77
:1012000002D0FB68013BFB60FB68002BF4D100BF00
:1012100000BF1037BD4680BD5C01002083DE1B434C
:1012200080B483B000AF78607B685B6903F08003B3
:10123000802B0CBF01230023DBB218460C37BD46C0
:101240005DF8047B704780B483B000AF78607B6842
:101250005B6903F04003402B0CBF01230023DBB28A
:1012600018460C37BD465DF8047B704780B483B0E8
:1012700000AF78607B685B6903F00103012B0CBF52
:1012800001230023DBB218460C37BD465DF8047B12
:10129000704780B483B000AF78607B685B6903F00F
:1012A0000203022B0CBF01230023DBB218460C37CC
:1012B000BD465DF8047B704780B483B000AF7860B2
:1012C0007B689B6903F00203022B0CBF0123002300
:1012D000DBB218460C37BD465DF8047B704780B41E
:1012E00085B000AF78607B685B69FB60FB687B68FA
:1012F0009B69FB60FB6800BF1437BD465DF8047B4B
:10130000704780B483B000AF786039607B681B6839
:1013100023F480623B681A437B681A6000BF0C3775
:10132000BD465DF8047B704780B483B000AF786041
:101330007B681B6843F480727B681A6000BF0C37BF
:10134000BD465DF8047B704780B483B000AF786021
:101350007B681B6843F400727B681A6000BF0C371F
:10136000BD465DF8047B704780B483B000AF786001
:101370007B681B69DBB218460C37BD465DF8047B01
:10138000704780B483B000AF78600B46FB707B6819
:101390001B6923F0FF02FB781A437B681A6100BFC8
:1013A0000C37BD465DF8047B704780B584B000AF54
:1013B0007860084611461A460346FB700B46BB7020
:1013C00013467B7041F28833FB6000BF7868FFF7FB
:1013D00073FF0346002B04D0FB685A1EFA60002BF3
:1013E000F4D1FB68002B01D101236AE07868FFF794
:1013F0009BFF41F28833FB6000BF7868FFF736FF40
:101400000346002B04D1FB685A1EFA60002BF4D16E
:10141000FB68002B01D1012353E0FB785B00DBB2BA
:1014200019467868FFF7ADFF41F28833FB6000BFD3
:101430007868FFF72EFF0346002B04D1FB685A1E85
:10144000FA60002BF4D1FB68002B01D1012338E0B6
:101450007868FFF744FFBB7819467868FFF791FF7B
:1014600041F28833FB6000BF7868FFF7D9FE03467E
:10147000002B04D1FB685A1EFA60002BF4D1FB68E4
:10148000002B01D101231CE07B7819467868FFF717
:1014900078FF41F28833FB6000BF7868FFF7C0FE39
:1014A0000346002B04D1FB685A1EFA60002BF4D1CE
:1014B000FB68002B01D1012303E07868FFF744FFAC
:1014C000002318461037BD4680BD90B587B000AFE9
:1014D000F8607B600B46FB721346BB7241F28833A7
:1014E0007B6100BFF868FFF7E7FE0346002B04D0DE
:1014F0007B695A1E7A61002BF4D17B69002B01D1E4
:101500000123E0E0F868FFF70FFF41F288337B61C9
:1015100000BFF868FFF7AAFE0346002B04D17B69E1
:101520005A1E7A61002BF4D17B69002B01D1012373
:10153000C9E0FB7A5B00DBB21946F868FFF721FFD0
:1015400041F288337B6100BFF868FFF7A2FE0346D3
:10155000002B04D17B695A1E7A61002BF4D17B6980
:10156000002B01D10123AEE0F868FFF7B8FE41F28D
:1015700088337B6100BFF868FFF752FE0346002BFB
:1015800004D17B695A1E7A61002BF4D17B69002B50
:1015900001D1012397E0BB7A1946F868FFF7F1FE05
:1015A00041F288337B6100BFF868FFF739FE0346DC
:1015B000002B04D17B695A1E7A61002BF4D17B6920
:1015C000002B01D101237EE0F868FFF7ADFE41F268
:1015D00088337B6100BFF868FFF748FE0346002BA5
:1015E00004D17B695A1E7A61002BF4D17B69002BF0
:1015F00001D1012367E097F90B305B005BB243F048
:1016000001035BB2DBB21946F868FFF7BAFE41F29C
:1016100088337B6100BFF868FFF73BFE0346002B71
:1016200004D17B695A1E7A61002BF4D17B69002BAF
:1016300001D1012347E03B8D012B04D10021F86843
:10164000FFF75FFE04E04FF48061F868FFF759FE92
:10165000F868FFF744FE00237B822FE041F28833D5
:101660007B6100BFF868FFF7EEFD0346002B04D155
:101670007B695A1E7A61002BF4D17B69002B01D162
:10168000012320E07A8A3B8D023B9A4203D100215C
:10169000F868FFF736FE7A8A3B8D013B9A4202D109
:1016A000F868FFF751FE7B8A7A68D418F868FFF76C
:1016B0005BFE034623707B8A01337B827A8A3B8DF3
:1016C0009A42CBD3002318461C37BD4690BD80B448
:1016D00083B000AF78607B681B6843F001027B68D1
:1016E0001A6000BF0C37BD465DF8047B704780B4BC
:1016F00083B000AF78607B681B6823F001027B68D1
:101700001A6000BF0C37BD465DF8047B704780B49B
:1017100083B000AF78607B681B6823F080027B6831
:101720001A6000BF0C37BD465DF8047B704780B47B
:1017300083B000AF78607B681B6823F040027B6851
:101740001A6000BF0C37BD465DF8047B704780B45B
:1017500083B000AF78607B68DB6823F001027B68B0
:10176000DA6000BF0C37BD465DF8047B704780B47B
:1017700083B000AF78607B685B6843F400727B687D
:101780005A6000BF0C37BD465DF8047B704780B4DB
:1017900083B000AF78607B685B6843F480627B68ED
:1017A0005A6000BF0C37BD465DF8047B704780B4BB
:1017B00083B000AF78607B685B6823F480627B68ED
:1017C0005A6000BF0C37BD465DF8047B704780B49B
:1017D00083B000AF78607B685B6843F480727B689D
:1017E0005A6000BF0C37BD465DF8047B704780B47B
:1017F00083B000AF78607B685B6903F08003802B67
:101800000CBF01230023DBB218460C37BD465DF840
:10181000047B704780B483B000AF78607B685B69FD
:1018200003F04003402B0CBF01230023DBB218461A
:101830000C37BD465DF8047B704780B483B000AFC1
:1018400078607B685B6903F00203022B0CBF012305
:101850000023DBB218460C37BD465DF8047B7047A9
:1018600080B483B000AF78607B685B6903F4806309
:10187000B3F5806F0CBF01230023DBB218460C3791
:10188000BD465DF8047B704780B483B000AF7860DC
:101890007B685B6903F01003102B0CBF012300234E
:1018A000DBB218460C37BD465DF8047B704780B448
:1018B00083B000AF78607B685B6903F48073B3F535
:1018C000807F0CBF01230023DBB218460C37BD46D6
:1018D0005DF8047B704780B483B000AF78607B68AC
:1018E0005B6903F40073B3F5007F0CBF0123002391
:1018F000DBB218460C37BD465DF8047B704780B4F8
:1019000083B000AF78607B685B6903F40063B3F574
:10191000006F0CBF01230023DBB218460C37BD4615
:101920005DF8047B704780B485B000AF78607B6859
:101930005B69FB60FB687B689B69FB60FB6800BFC1
:101940001437BD465DF8047B704780B483B000AFA8
:1019500078607B685B6923F480627B685A6100BFB2
:101960000C37BD465DF8047B704780B485B000AF8E
:1019700078607B685B69FB60FB687B681B6843F091
:1019800001027B681A6000BF1437BD465DF8047B16
:10199000704780B483B000AF78607B685B6923F4E4
:1019A00080727B685A6100BF0C37BD465DF8047BCE
:1019B000704780B483B000AF78607B685B6923F4C4
:1019C00000727B685A6100BF0C37BD465DF8047B2E
:1019D000704780B483B000AF78607B685B6923F4A4
:1019E00000627B685A6100BF0C37BD465DF8047B1E
:1019F000704780B483B000AF78607B689B6903F068
:101A0000040318460C37BD465DF8047B704780B46C
:101A100083B000AF78607B681B69DBB218460C3777
:101A2000BD465DF8047B704780B483B000AF78603A
:101A30000B46FB707B681B6923F0FF02FB781A439F
:101A40007B681A6100BF0C37BD465DF8047B7047A8
:101A500080B586B000AF244B9B681846FFF747FE61
:101A6000214B9B6818460AF001FD1F4B9B681846E6
:101A7000FFF74DFE1C4B9B681846FFF758FE1A4BAC
:101A80009B681846FFF763FE3B4600221A605A60C7
:101A90009A60DA601A615A6100233B60134B7B60E5
:101AA0000023BB602423FB604FF480633B614FF451
:101AB00080437B610C4B9B683A46114618460AF0FE
:101AC0000FFD094B9B681846FFF751FE064B9B68BC
:101AD0001846FFF77CFE044B9B681846FFF7F7FD9E
:101AE00000BF1837BD4680BD20450020A0860100FC
:101AF00080B400AF0A4B00225A71094B4FF0FF32FD
:101B00001A60074B00221A71054B00229A71044B90
:101B10000022DA7100BFBD465DF8047B704700BF4C
:101B20002045002080B582B000AF7860094A7B680C
:101B30009360094B00221A70FFF7DAFF4FF48072AE
:101B4000002106480CF0DFFC002318460837BD468C
:101B500080BD00BF204500202C45002020440020EF
:101B600080B596B000AF784B01221A70774B9B6816
:101B70001846FFF762FE0346002B1AD0734B9B6892
:101B80001846FFF7D0FE714B9B681846FFF731FFF0
:101B90000346042B08D16D4B00221A716B4B9B68D6
:101BA0001846FFF7F4FD04E0684B9B681846FFF702
:101BB000EEFD664B9B681846FFF719FE0346002BA7
:101BC00052D0002387F85730604B1B6807F138006C
:101BD0005F4A1E210CF0E2FB07F1380319465D480D
:101BE00000F0D8FB594B1B6807F138005A4A1E21F8
:101BF0000CF0D4FB07F138031946564800F0CAFB35
:101C0000524B1A68554913465B0013440B44023388
:101C10001B7887F8573097F8573007F13800504A4B
:101C20001E210CF0BBFB07F138031946494800F0B0
:101C3000B1FB97F8573007F138004A4A1E210CF0E3
:101C4000ADFB07F138031946424800F0A3FB3F4BB8
:101C50009B6897F8572011461846FFF7E5FE3B4B67
:101C60009B681846FFF7A3FD384B9B681846FFF7A3
:101C7000D1FD0346002B4AD0344B9B681846FFF732
:101C8000C6FE034687F85630304B1B79DBB2002B7B
:101C90001FD12E4A97F85630537197F85630381D99
:101CA000314A32210CF07AFB3B1D1946294800F0DD
:101CB00071FB264B01221A71244B1B68381D2B4ADD
:101CC00032210CF06BFB3B1D1946224800F062FBF1
:101CD0001DE01E4B1A68214913465B0013440B4458
:101CE00001331B78032B0AD1184B1A681B49134682
:101CF0005B0013440B44023397F856201A70134BC1
:101D000000221A71114B9B681846FFF750FD0F4BCC
:101D10009B681846FFF7B8FD0346002B0FD00B4B0E
:101D20009B681846FFF721FE084B00221A71074BEB
:101D30009B681846FFF73BFD034B00221A7000BF5B
:101D40005837BD4680BD00BF2C45002020450020EF
:101D5000C006010800100140DC06010830450020E3
:101D6000F00601080C0701082407010834070108E0
:101D700080B500AF2149224800F00CFB214B002226
:101D80001A70214B9B681846FFF791FD0346002B04
:101D900004D01D4B9B681846FFF7FBFD1A4B9B6850
:101DA0001846FFF798FD0346002B04D0164B9B689E
:101DB0001846FFF7FEFD144B9B681846FFF750FDD1
:101DC0000346002B04D0104B9B681846FFF7BDFD5F
:101DD0000D4B9B681846FFF792FD0346002B04D07D
:101DE000094B9B681846FFF7F4FDFFF731FE064BE1
:101DF0009B681846FFF796FE00BF80BD48070108A4
:101E0000001001402C4500202045002080B483B004
:101E100000AF03463960FB7197F90730002B0ADBEE
:101E20003B68DAB20C4997F907301201D2B20B4481
:101E300083F800230AE03B68DAB20849FB7903F033
:101E40000F03043B1201D2B20B441A7600BF0C37C9
:101E5000BD465DF8047B704700E100E000ED00E066
:101E600080B582B000AF78607B68013BB3F1807FC2
:101E700001D301230FE00A4A7B68013B53600F2125
:101E80004FF0FF30FFF7C2FF054B00229A60044B72
:101E900007221A60002318460837BD4680BD00BFE0
:101EA00010E000E080B400AF054B1B68044A43F02B
:101EB0000103136000BFBD465DF8047B704700BF9F
:101EC00010E000E080B500AF054B1B68054AA2FB9F
:101ED00003239B091846FFF7C3FF00BF80BD00BF67
:101EE0005C010020D34D621080B483B000AF7860F5
:101EF0007B681B6803F00203022B0CBF0123002345
:101F0000DBB218460C37BD465DF8047B704780B4E1
:101F100083B000AF78607B681B6803F00403042B78
:101F20000CBF01230023DBB218460C37BD465DF819
:101F3000047B704780B483B000AF78607B681B6817
:101F400003F00803082B0CBF01230023DBB2184663
:101F50000C37BD465DF8047B704780B483B000AF9A
:101F600078607B681B6803F02003202B0CBF0123E3
:101F70000023DBB218460C37BD465DF8047B704782
:101F800080B483B000AF78607B681B6803F0800387
:101F9000802B0CBF01230023DBB218460C37BD4653
:101FA0005DF8047B704780B485B000AF78607B68D3
:101FB0001B68FB60FB687B685B68FB60FB6800BFBD
:101FC0001437BD465DF8047B704780B485B000AF20
:101FD00078607B681B68FB60FB687B685B68FB6004
:101FE000FB6800BF1437BD465DF8047B704780B4C2
:101FF00085B000AF78607B681B68FB60FB687B681E
:102000005B68FB60FB6800BF1437BD465DF8047B6E
:10201000704780B489B000AF78607B680C33FB6098
:10202000FB6853E8003FBB60BB6843F02003FB61E3
:102030007B680C33FA69BA617B617969BA6941E8F6
:1020400000233B613B69002BE7D100BF00BF243771
:10205000BD465DF8047B704780B489B000AF7860FE
:102060007B680C33FB60FB6853E8003FBB60BB68D8
:1020700043F08003FB617B680C33FA69BA617B61D2
:102080007969BA6941E800233B613B69002BE7D1DC
:1020900000BF00BF2437BD465DF8047B704780B4A5
:1020A00089B000AF78607B680C33FB60FB6853E855
:1020B000003FBB60BB6823F02003FB617B680C33EF
:1020C000FA69BA617B617969BA6941E800233B61C9
:1020D0003B69002BE7D100BF00BF2437BD465DF848
:1020E000047B704780B489B000AF78607B680C33A4
:1020F000FB60FB6853E8003FBB60BB6823F08003D4
:10210000FB617B680C33FA69BA617B617969BA69F2
:1021100041E800233B613B69002BE7D100BF00BFD2
:102120002437BD465DF8047B704780B483B000AFB0
:1021300078607B68DB6803F02003202B0CBF012351
:102140000023DBB218460C37BD465DF8047B7047B0
:1021500080B483B000AF78607B68DB6803F08003F5
:10216000802B0CBF01230023DBB218460C37BD4681
:102170005DF8047B704780B483B000AF78607B6803
:102180005B68DBB218460C37BD465DF8047B7047D0
:1021900080B483B000AF78600B46FB70FA787B6840
:1021A0005A6000BF0C37BD465DF8047B70470000E5
:1021B00080B485B000AF78600023FB6015E0104963
:1021C000FA681346DB0013449B000B441B687A68D3
:1021D0009A4207D1FA681346DB0013449B00084A71
:1021E000134406E0FB680133FB60FB68012BE6DD6E
:1021F000002318461437BD465DF8047B704700BFC6
:102200000000002080B586B000AF0346B9607A6058
:10221000FB73BB685B680133BA68D268B3FBF2F149
:1022200001FB02F29B1A7B61BB689A687B699A4248
:102230000FD07868FFF733FFBB681A68BB685B682C
:102240001344FA7B1A707A69BB685A607868FFF7A2
:10225000E0FE00BF1837BD4680BD80B586B000AF38
:1022600078607868FFF7A4FF78617B69002B02D162
:102270004FF0FF3325E07B6904333B613B695A68CB
:102280003B699B689A4202D14FF0FF3319E07868AE
:10229000FFF705FF3B691A683B699B6813441B788D
:1022A000FB733B699B6801333A69D268B3FBF2F177
:1022B00001FB02F29A1A3B699A607868FFF7A9FE5F
:1022C000FB7B18461837BD4680BD80B586B000AF91
:1022D000786039607868FFF76BFF78617B69002B65
:1022E0002BD03B68002B28DB7B6914333B613B69B7
:1022F0005B6801333A69D268B3FBF2F101FB02F289
:102300009B1AFB607868FFF7CAFE00BF3B699A68BA
:10231000FB689A42FAD03B691A683B695B681344D0
:102320003A68D2B21A70FA683B695A607868FFF767
:1023300070FE7868FFF790FE00E000BF1837BD46DA
:1023400080BD80B584B000AF78607868FFF730FF5B
:10235000F860FB68002B01D1002317E0FB68043311
:10236000BB60BB68DB689AB2BB685B689BB2134416
:102370009AB2BB689B689BB2D31A9BB21A46BB68E1
:10238000DB68B2FBF3F101FB03F3D31A18461037F5
:10239000BD4680BD80B582B000AF7860396007E08F
:1023A0003B685A1C3A601B7819467868FFF78DFF26
:1023B0003B681B78002BF3D100BF00BF0837BD4638
:1023C00080BD80B586B000AF78607868FFF7F0FE1A
:1023D00078617B69002B68D07B6904333B617B6942
:1023E0001433FB607868FFF7B8FD0346002B2DD04F
:1023F0007868FFF79AFE0346002B27D07868FFF72E
:10240000BAFE0346FB727868FFF794FD0346002B83
:102410000BD17868FFF768FD0346002B05D178687B
:10242000FFF775FD0346002B09D07868FFF7DFFD45
:102430007868FFF7B8FD7868FFF7C7FD36E0FB7AEC
:102440007A6839691846FFF7DDFE2FE07868FFF7F4
:1024500097FD0346002B29D07868FFF779FE0346E5
:10246000002B23D0FB685A68FB689B689A4203D113
:102470007868FFF737FE19E0FB681A68FB689B680D
:1024800013441B78BB72FB689B680133FA68D268FF
:10249000B3FBF2F101FB02F29A1AFB689A60BB7A75
:1024A00019467868FFF774FE00E000BF1837BD4694
:1024B00080BD000080B400AFBFF34F8F00BF064B5C
:1024C000DB6803F4E0620449044B1343CB60BFF3C1
:1024D0004F8F00BF00BFFDE700ED00E00400FA05EC
:1024E00080B483B000AF786039607B683A689A61E5
:1024F00000BF0C37BD465DF8047B704780B483B0E5
:1025000000AF786039603B681A047B689A6100BF4D
:102510000C37BD465DF8047B7047000080B582B083
:1025200000AF786001F044FD03497868FFF732FF9F
:1025300000BF0837BD4680BDA40F010880B500AFBD
:10254000024903480BF056F800BF80BDF800002098
:10255000F400002080B582B000AF0E48FFF7F1FE16
:102560000346002B12D00B48FFF777FE0346FB71A2
:1025700001F06AFD0246FB791946104601F05AFE49
:1025800001F062FD0346184601F077FE00BF0837F0
:10259000BD4680BD0014014080B588B000AFF86032
:1025A000B9607A6007F11403074A0A2118460BF054
:1025B000F5FE07F114031946F86801F0EFFE00BFBD
:1025C0002037BD4680BD00BFB80F010880B584B07C
:1025D00000AFF860B9607A60FFF76CFF80B5A2B019
:1025E00002AFF860B9607A600121B86801F098FF25
:1025F000B867BB6F1B78612B03D0BB6F1B78002BB8
:102600006CD10023A7F870305E4B3B6107F11403D7
:102610004C22002118460BF076FF5B4808F03CF88E
:10262000002387F87F3029E097F87F30564A32F848
:102630001330A7F87030B7F9703047F6FF72934245
:1026400007D107F16003514A0A2118460BF0A6FE94
:1026500007E0B7F9703007F160004D4A0A210BF02E
:102660009DFE07F1600207F11003114618460BF0BA
:1026700052FF97F87F30013387F87F3097F87F302B
:10268000072BD1D907F110031846FDF701FEF866B4
:10269000FB6E002B0ED0FB6E013B80333B4413F8E6
:1026A000703C202B06D1FB6E013B80333B44002263
:1026B00003F8702C07F110031846FDF7E9FD0346F7
:1026C0001A4607F110031344324A1068186007F1E4
:1026D00010031946F86801F061FE4AE0BB6F1B78F1
:1026E000302B1BD0BB6F1B78312B17D0BB6F1B78E7
:1026F000322B13D0BB6F1B78332B0FD0BB6F1B78E3
:10270000342B0BD0BB6F1B78352B07D0BB6F1B78DE
:10271000362B03D0BB6F1B78372B2AD1B86F0BF049
:102720009DF87867184807F0B7FF174A7B6F32F8B3
:102730001330A7F87230B7F9723047F6FF72934240
:1027400007D107F110007B6F134A50210BF026FED2
:1027500009E0B7F9723007F1100000937B6F0F4A60
:1027600050210BF01BFE07F110031946F86801F029
:1027700015FE0B49F86801F011FE00BF8037BD4619
:1027800080BD00BF6E74633A805B0020C00F0108FB
:10279000C40F0108C80F0108CC0F0108D80F0108A9
:1027A000E80F010880B586B000AFF860B9607A60C4
:1027B0000121B86801F0B4FE786178690BF04EF839
:1027C0000346DAB20F4B1A700E4B1B78002B08D061
:1027D00010210D48FFF784FE0C49F86801F0DEFD7A
:1027E00007E010210848FFF789FE0949F86801F061
:1027F000D5FD0849F86801F0D1FD00BF1837BD4686
:1028000080BD00BFD8410020000C0240EC0F010841
:10281000F80F0108E80F010880B584B000AFF86038
:10282000B9607A600A4B1B78002B04D00949F8681C
:1028300001F0B4FD03E00849F86801F0AFFD074975
:10284000F86801F0ABFD00BF1037BD4680BD00BF8A
:10285000D8410020EC0F0108F80F0108E80F01082B
:1028600090B59DB000AFF860B9607A600121B8689A
:1028700001F056FEB866002387F867304A4B07F12F
:1028800010040FCB84E80F00BB6E1B78612B03D0C4
:10289000BB6E1B78002B3DD1002387F86F3034E0EE
:1028A00097F86F309B0070333B4453F8603CFB65F6
:1028B000F86D07F005FB034687F867300A200AF039
:1028C0000DFE97F96730002B0CD10021F86D07F051
:1028D000ABFA97F86F3007F12000344A3C210BF037
:1028E0005DFD07E097F86F3007F12000304A3C218A
:1028F0000BF054FD07F120031946F86801F04EFD76
:1029000097F86F30013387F86F3097F86F30032BEB
:10291000C6D940E0BB6E1B78302B0BD0BB6E1B784A
:10292000312B07D0BB6E1B78322B03D0BB6E1B78CC
:10293000332B30D1B86E0AF091FF38663B6E9B00A6
:1029400070333B4453F8603CFB65F86D07F0B8FA10
:10295000034687F867300A200AF0C0FD97F9673010
:10296000002B0BD10021F86D07F05EFA07F1200073
:102970003B6E0E4A3C210BF011FD06E007F12000F2
:102980003B6E0B4A3C210BF009FD07F12003194671
:10299000F86801F003FD0749F86801F0FFFC00BF8B
:1029A0007437BD4690BD00BF2C100108041001080B
:1029B00018100108E80F010880B5A8B002AFF86050
:1029C000B9607A600121B86801F0AAFDC7F89000EB
:1029D0000221B86801F0A4FDC7F88C000321B86893
:1029E00001F09EFDC7F888000421B86801F098FD49
:1029F000C7F88400D7F890000AF030FF03467B67E1
:102A0000D7F88C000AF02AFF0346BB67D7F8880086
:102A10000AF024FF0346FB67D7F884000AF01EFF84
:102A20000346C7F88030002387F8973049E097F8CD
:102A300097309B0098333B4453F8243C9AB297F864
:102A400097301146184608F005F897F897309B0024
:102A500098333B4453F8243C40F6B832934214DD9B
:102A600097F8971097F897309B0098333B4453F8AA
:102A7000243C97F8972007F11000019200930B4631
:102A8000164A64210BF08AFC10E097F8972097F81B
:102A900097309B0098333B4453F8243C07F11000D7
:102AA000009313460E4A64210BF078FC07F11003E3
:102AB0001946F86801F072FC97F89730013387F8EF
:102AC000973097F89730032BB1D90649F86801F091
:102AD00065FC00BF9837BD4680BD00BF3C100108B3
:102AE00074100108E80F010880B5AEB002AFF860BD
:102AF000B9607A600121B86801F012FDC7F8A8003A
:102B00000023A7F8A6300023A7F8A430D7F8A830F0
:102B10001B78612B04D0D7F8A8301B78002B32D15A
:102B2000002387F8AF3029E097F8AF30184607F058
:102B3000F5FF0346A7F8A63097F8AF30184608F01F
:102B400009F80346A7F8A43097F8AF10B7F8A630F5
:102B5000B7F8A42007F11400019200930B462E4A07
:102B600050210BF01BFC07F114031946F86801F023
:102B700015FC97F8AF30013387F8AF3097F8AF30D6
:102B8000032BD1D93FE0D7F8A8301B78302B0ED0DB
:102B9000D7F8A8301B78312B09D0D7F8A8301B788C
:102BA000322B04D0D7F8A8301B78332B2BD1D7F891
:102BB000A8000AF053FEC7F8A000D7F8A030DBB297
:102BC000184607F0ABFF0346A7F8A630D7F8A030A9
:102BD000DBB2184607F0BEFF0346A7F8A430B7F8EB
:102BE000A630B7F8A42007F1640001920093D7F84B
:102BF000A030094A3C210BF0D1FB07F164031946D0
:102C0000F86801F0CBFB0549F86801F0C7FB00BF8D
:102C1000B037BD4680BD00BF88100108E80F01082D
:102C200080B58AB000AFF860B9607A600121B868F9
:102C300001F076FC78620221B86801F071FC38621C
:102C40000321B86801F06CFCF8610421B86801F058
:102C500067FCB861786A0AF001FE0346002B14BFD6
:102C600001230023DBB2FB75386A0AF0F7FD034647
:102C7000002B14BF01230023DBB2BB75F8690AF0F7
:102C8000EDFD0346002B14BF01230023DBB27B754F
:102C9000B8690AF0E3FD0346002B14BF01230023AB
:102CA000DBB23B753B7D7A7DB97DF87D07F0B4FFE3
:102CB000FB7D002B04D11A49F86801F06FFB03E09B
:102CC0001849F86801F06AFBBB7D002B04D1164956
:102CD000F86801F063FB03E01449F86801F05EFB5B
:102CE0007B7D002B04D11249F86801F057FB03E00B
:102CF0001049F86801F052FB3B7D002B04D10E49CE
:102D0000F86801F04BFB03E00C49F86801F046FB62
:102D10000B49F86801F042FB00BF2837BD4680BD73
:102D2000A4100108B8100108CC100108E010010837
:102D3000F4100108081101081C11010830110108E4
:102D4000E80F010890B593B000AFF860B9607A6001
:102D50000121B86801F0E4FB78640023FB6307F10C
:102D60003C03DC1C07F13C039A1C07F13C03591C93
:102D700007F13C00234607F081FF7B6C1B78612B39
:102D800003D07B6C1B78002B34D197F83C30002BA0
:102D900004D13449F86801F001FB03E03249F868D6
:102DA00001F0FCFA97F83D30002B04D12F49F86868
:102DB00001F0F4FA03E02E49F86801F0EFFA97F811
:102DC0003E30002B04D12B49F86801F0E7FA03E00C
:102DD0002949F86801F0E2FA97F83F30002B04D156
:102DE0002649F86801F0DAFA34E02549F86801F07C
:102DF000D5FA2FE07B6C1B78302B0BD07B6C1B78CB
:102E0000312B07D07B6C1B78322B03D07B6C1B786B
:102E1000332B1FD1786C0AF021FD386407F13C0296
:102E20003B6C13441B78002B07D107F114003B6C5B
:102E3000144A28210BF0B2FA06E007F114003B6CAB
:102E4000114A28210BF0AAFA07F114031946F86871
:102E500001F0A4FA0D49F86801F0A0FA00BF4C3760
:102E6000BD4690BD44110108581101086C110108BC
:102E70008011010894110108A8110108BC11010872
:102E8000D0110108E4110108F8110108E80F010848
:102E900080B5A4B002AFF860B9607A600121B8686B
:102EA00001F03EFBC7F880000221B86801F038FB52
:102EB000F8670321B86801F033FBB8670421B868EC
:102EC00001F02EFB7867D7F880000AF0C7FC0346B4
:102ED0007B66F86F0AF0C2FC0346BB66B86F0AF067
:102EE000BDFC0346FB66786F0AF0B8FC03463B67FF
:102EF000002387F887303AE097F887309B008833C3
:102F00003B4453F8243C642B07DD97F887309B0043
:102F100088333B44642243F8242C97F887309B0085
:102F200088333B4453F8243CDAB297F88730114693
:102F3000184607F02BFE97F8872097F887309B00FC
:102F400088333B4453F8243C07F1140000931346A4
:102F50000D4A50210BF022FA07F114031946F868C4
:102F600001F01CFA97F88730013387F8873097F81B
:102F70008730032BC0D90549F86801F00FFA00BF6C
:102F80008837BD4680BD00BF0C120108E80F01085C
:102F900080B59AB002AFF860B9607A600121B86874
:102FA00001F0BEFAB865BB6D1B78612B03D0BB6D19
:102FB0001B78002B27D1002387F85F301EE097F89D
:102FC0005F30184607F00AFE034687F8533097F83B
:102FD0005F2097F8533007F1140000931346244AFA
:102FE0003C210BF0DBF907F114031946F86801F0F6
:102FF000D5F997F85F30013387F85F3097F85F3085
:10300000032BDCD92BE0BB6D1B78302B0BD0BB6DB9
:103010001B78312B07D0BB6D1B78322B03D0BB6DD7
:103020001B78332B1BD1B86D0AF018FC78657B6DCB
:10303000DBB2184607F0D2FD034687F8533097F805
:10304000533007F1140000937B6D094A3C210BF0CB
:10305000A5F907F114031946F86801F09FF905492D
:10306000F86801F09BF900BF6037BD4680BD00BF26
:103070000C120108E80F010880B592B002AFF860A9
:10308000B9607A600121B86801F04AFAF863F86B18
:103090000AF0E4FBB863BB6B1BB2184607F0BEFC3A
:1030A000BB6B07EE903AF8EEE77AB2EE047AC7EE21
:1030B000876A16EE900AFDF757FA02460B4607F1AB
:1030C0001000CDE90023094A28210BF067F907F128
:1030D00010031946F86801F061F90549F86801F034
:1030E0005DF900BF4037BD4680BD00BF2412010816
:1030F000E80F010880B596B002AFF860B9607A6059
:1031000007F09CFC0346A7F84E30B7F94E3007EEA7
:10311000903AF8EEE77AB2EE047AC7EE876A16EED6
:10312000900AFDF721FA02460B4607F11000CDE99F
:103130000023094A3C210BF031F907F1100319462D
:10314000F86801F02BF90549F86801F027F900BF8C
:103150005037BD4680BD00BF24120108E80F0108AA
:1031600080B596B000AFF860B9607A600121B868A8
:1031700001F0D6F97865786D0AF070FB38653B6D23
:10318000DBB2184607F094FE07F114003B6D094AC4
:103190003C210BF003F907F114031946F86801F01C
:1031A000FDF80549F86801F0F9F800BF5837BD4649
:1031B00080BD00BF44120108E80F010880B594B03B
:1031C00000AFF860B9607A60002387F84F3007F1EC
:1031D0004F03184607F07EFE97F84F3007F11000B6
:1031E000084A3C210BF0DAF807F110031946F86899
:1031F00001F0D4F80449F86801F0D0F800BF503766
:10320000BD4680BD44120108E80F010880B598B0A2
:1032100000AFF860B9607A600121B86801F080F908
:10322000F8650221B86801F07BF9B8650321B86838
:1032300001F076F978650421B86801F071F9386514
:10324000F86D0AF00BFB034687F84F30B86D0AF0B3
:1032500005FB034687F84E30786D0AF0FFFA034607
:1032600087F84D30386D0AF0F9FA034687F84C308C
:1032700097F84C3097F84D2097F84E1097F84F007C
:1032800007F02EFD97F84F30002B0CD007F11003FC
:10329000224A3C2118460BF081F807F11003194629
:1032A000F86801F07BF897F84E30002B0CD007F14E
:1032B00010031B4A3C2118460BF070F807F110036D
:1032C0001946F86801F06AF897F84D30002B0CD0D9
:1032D00007F11003134A3C2118460BF05FF807F181
:1032E00010031946F86801F059F897F84C30002B94
:1032F0000CD007F110030C4A3C2118460BF04EF895
:1033000007F110031946F86801F048F80749F86812
:1033100001F044F800BF6037BD4680BD541201087B
:10332000641201087412010884120108E80F0108F0
:1033300090B599B000AFF860B9607A600121B868C3
:1033400001F0EEF8B86507F15003DC1C07F15003FB
:103350009A1C07F15003591C07F15000234607F04F
:1033600001FDBB6D1B78612B03D0BB6D1B78002B5F
:103370002CD1002387F85F3023E097F85F3060336B
:103380003B4413F8103C002B08D097F85F3007F14E
:1033900014002A4A3C210BF001F807E097F85F304F
:1033A00007F11400264A3C210AF0F8FF07F1140344
:1033B0001946F86800F0F2FF97F85F30013387F89C
:1033C0005F3097F85F30032BD7D92FE0BB6D1B78A8
:1033D000302B0BD0BB6D1B78312B07D0BB6D1B780E
:1033E000322B03D0BB6D1B78332B1FD1B86D0AF085
:1033F00035FA786507F150027B6D13441B78002B7A
:1034000007D007F114007B6D0C4A3C210AF0C6FF7F
:1034100006E007F114007B6D094A3C210AF0BEFF6B
:1034200007F114031946F86800F0B8FF0549F86879
:1034300000F0B4FF00BF6437BD4690BD9412010890
:10344000A4120108E80F010880B59AB000AFF86037
:10345000B9607A600121B86801F062F8386602212B
:10346000B86801F05DF8F8650321B86801F058F814
:10347000B8650421B86801F053F87865386E0AF031
:10348000EDF90346DBB287F85030F86D0AF0E6F943
:103490000346DBB287F85130B86D0AF0DFF9034616
:1034A000DBB287F85230786D0AF0D8F90346DBB208
:1034B00087F8533097F8500097F8511097F852203A
:1034C00097F8533007F080FC002387F867301AE044
:1034D00097F8673068333B4413F8183C002B0DD045
:1034E00097F8673007F114000D4A3C210AF056FFA7
:1034F00007F114031946F86800F050FF97F8673099
:10350000013387F8673097F86730032BE0D9054916
:10351000F86800F043FF00BF6837BD4680BD00BFBC
:10352000B4120108E80F010890B599B000AFF86037
:10353000B9607A600121B86800F0F2FFB86507F160
:103540005003DC1C07F150039A1C07F15003591C6F
:1035500007F15000234607F07BFCBB6D1B78612B05
:1035600003D0BB6D1B78002B2CD1002387F85F3074
:1035700023E097F85F3060333B4413F8103C002B96
:1035800008D097F85F3007F114002A4A3C210AF06E
:1035900005FF07E097F85F3007F11400264A3C2149
:1035A0000AF0FCFE07F114031946F86800F0F6FE75
:1035B00097F85F30013387F85F3097F85F30032B5F
:1035C000D7D92FE0BB6D1B78302B0BD0BB6D1B7890
:1035D000312B07D0BB6D1B78322B03D0BB6D1B7812
:1035E000332B1FD1B86D0AF039F9786507F1500215
:1035F0007B6D13441B78002B07D007F114007B6D03
:103600000C4A3C210AF0CAFE06E007F114007B6D6B
:10361000094A3C210AF0C2FE07F114031946F86872
:1036200000F0BCFE0549F86800F0B8FE00BF643742
:10363000BD4690BDB4120108C8120108E80F010888
:1036400080B586B000AFF860B9607A600121B868D3
:1036500000F066FF786178690AF000F90346002BF4
:1036600014BF01230023DBB2FB74FB7C184607F078
:1036700043FCFB7C002B04D00849F86800F08EFE68
:1036800003E00749F86800F089FE0649F86800F091
:1036900085FE00BF1837BD4680BD00BFDC120108A3
:1036A000F0120108E80F010880B586B000AFF8609D
:1036B000B9607A600023FB7507F11703184607F01D
:1036C0002DFCFB7D002B04D00849F86800F066FE55
:1036D00003E00749F86800F061FE0649F86800F069
:1036E0005DFE00BF1837BD4680BD00BFDC1201087B
:1036F000F0120108E80F010880B5A0B000AFF86033
:10370000B9607A60734806F0C7FF002387F87F30FE
:1037100015E097F87F306F4A32F81330A7F87C3005
:10372000B7F97C3047F6FF72934203D06A4B01220F
:103730001A7008E097F87F30013387F87F3097F8E8
:103740007F30072BE5D904F00BFA07F11403634A25
:1037500092E8030083E803005F4B1B78002B0ED038
:1037600007F114031846FCF793FD03461A4607F1C8
:10377000140313445A4A1068186012791A71564B90
:103780005B78002B0ED007F114031846FCF780FD80
:1037900003461A4607F114031344524A106818608E
:1037A00012791A714C4B9B78002B0ED007F1140341
:1037B0001846FCF76DFD03461A4607F1140313443F
:1037C000494A1068186012791A71434BDB78002B54
:1037D0000ED007F114031846FCF75AFD03461A46AB
:1037E00007F114031344414A1068186012791A71E2
:1037F000394B1B79002B0ED007F114031846FCF748
:1038000047FD03461A4607F114031344384A10686B
:10381000186012791A71304B5B79002B0ED007F1CA
:1038200014031846FCF734FD03461A4607F1140347
:103830001344304A1068186092889A80264B9B790E
:10384000002B0ED007F114031846FCF721FD0346A8
:103850001A4607F114031344274A106818601279B6
:103860001A711D4BDB79002B0ED007F1140318469B
:10387000FCF70EFD03461A4607F1140313441F4AD2
:103880001068186012791A7107F114031846FCF7D2
:10389000FFFCB867BB6F002B0ED0BB6F013B8033C2
:1038A0003B4413F86C3C2C2B06D1BB6F013B80339F
:1038B0003B44002203F86C2C07F114031946F86806
:1038C00000F06CFD0E49F86800F068FD00BF80371D
:1038D000BD4680BD805B0020185B002008130108F6
:1038E00010130108181301082013010828130108F8
:1038F0003013010838130108401301084813010868
:10390000E80F0108F0B5A1B006AFF860B9607A60C1
:10391000394804F059F80121B86800F001FE7866D2
:103920007B6E1B78612B03D07B6E1B78002B23D121
:10393000314BB3F900301E462F4BB3F902301A4613
:103940002D4BB3F9043019462B4BB3F906301C4606
:10395000294BB3F908301D46274BB3F90A3007F15C
:103960001400049303950294019100923346234A74
:1039700050210AF013FD30E07B6E1B78302B14D100
:103980001D4BB3F9003019461B4BB3F902301A46F0
:10399000194BB3F9043007F11400019300920B4660
:1039A000174A50210AF0FAFC17E07B6E1B78312B86
:1039B00013D1114BB3F9063019460F4BB3F9083048
:1039C0001A460D4BB3F90A3007F114000193009227
:1039D0000B460C4A50210AF0E1FC07F1140319468A
:1039E000F86800F0DBFC0849F86800F0D7FC00BF7D
:1039F0006C37BD46F0BD00BFE85A002050130108E7
:103A0000781301088C130108E80F010880B594B001
:103A100002AFF860B9607A60194803F00BFC184BEC
:103A2000D3ED007AFDEEE77A17EE903A1BB2194615
:103A3000134BD3ED017AFDEEE77A17EE903A1BB205
:103A40001A460F4BD3ED027AFDEEE77A17EE903A65
:103A50001BB207F11400019300920B46094A322170
:103A60000AF09CFC07F114031946F86800F096FC74
:103A70000549F86800F092FC00BF4837BD4680BD9C
:103A8000005B002078130108E80F01082DE9B0431E
:103A9000A0B006AFF860B9607A603E4803F0C2FAA1
:103AA0000121B86800F03CFD78667B6E1B78612BC5
:103AB00003D07B6E1B78002B21D1364B1B68184638
:103AC000FCF752FD04460D46324B9B681846FCF746
:103AD0004BFD804689462F4B5B681846FCF744FD3A
:103AE00002460B4607F11400CDE90423CDE9028913
:103AF000CDE90045284A50210AF050FC3AE07B6E9F
:103B00001B78302B0FD1234B1B681846FCF72CFD7C
:103B100002460B4607F11400CDE900231F4A50214D
:103B20000AF03CFC26E07B6E1B78312B0FD1194B41
:103B30009B681846FCF718FD02460B4607F1140077
:103B4000CDE90023164A50210AF028FC12E07B6ED2
:103B50001B78322B0ED10F4B5B681846FCF704FD27
:103B600002460B4607F11400CDE900230D4A50210F
:103B70000AF014FC07F114031946F86800F00EFC73
:103B80000949F86800F00AFC00BF6837BD46BDE887
:103B9000B08300BFF45A0020A0130108CC13010821
:103BA000DC130108EC130108E80F010880B58EB0A2
:103BB00002AFF860B9607A60144803F081FA134BE1
:103BC0001B8807EE903AF8EE677A9FED117AC7EE00
:103BD000876A16EE900AFCF7C7FC02460B4607F10F
:103BE0001000CDE900230B4A1E210AF0D7FB07F194
:103BF00010031946F86800F0D1FB0749F86800F097
:103C0000CDFB00BF3037BD4680BD00BF0C5B002040
:103C10000000C842FC130108E80F01082DE9B04379
:103C2000A0B006AFF860B9607A605C4803F0A8FD08
:103C30000121B86800F074FC78667B6E1B78612BFC
:103C400003D07B6E1B78002B3FD1544BB3F900306F
:103C500007EE903AF8EEE77A9FED517AC7EE876A61
:103C600016EE900AFCF780FC04460D464B4BB3F968
:103C7000023007EE903AF8EEE77A9FED4A7AC7EE07
:103C8000876A16EE900AFCF76FFC80468946434B24
:103C9000B3F9043007EE903AF8EEE77A9FED417AF7
:103CA000C7EE876A16EE900AFCF75EFC02460B46EA
:103CB00007F11400CDE90423CDE90289CDE90045DF
:103CC000394A50210AF06AFB58E07B6E1B78302B92
:103CD00019D1324BB3F9003007EE903AF8EEE77A9B
:103CE0009FED2F7AC7EE876A16EE900AFCF73CFC30
:103CF00002460B4607F11400CDE900232B4A502160
:103D00000AF04CFB3AE07B6E1B78312B19D1234B28
:103D1000B3F9023007EE903AF8EEE77A9FED217A98
:103D2000C7EE876A16EE900AFCF71EFC02460B46A9
:103D300007F11400CDE900231D4A50210AF02EFBA3
:103D40001CE07B6E1B78322B18D1144BB3F9043076
:103D500007EE903AF8EEE77A9FED127AC7EE876A9F
:103D600016EE900AFCF700FC02460B4607F1140021
:103D7000CDE900230F4A50210AF010FB07F114038C
:103D80001946F86800F00AFB0B49F86800F006FBDA
:103D900000BF6837BD46BDE8B08300BF105B0020A0
:103DA00000007A440000C8420C140108FC1301080A
:103DB000CC130108DC130108E80F010880B590B0AE
:103DC00000AFF860B9607A600121B86800F0A8FB24
:103DD000F863F86B09F042FDB863BB6B07EE903AED
:103DE000B8EEE77ADFED106AC7EE267AC7ED0D7AF6
:103DF00097ED0D0A00210D4802F044F907F1140077
:103E0000BB6B0B4A1E210AF0C9FA07F114031946CD
:103E1000F86800F0C3FA0749F86800F0BFFA00BF7D
:103E20004037BD4680BD00BF0000C842E40000200E
:103E300038140108E80F010880B58EB000AFF860B3
:103E4000B9607A604FF07E533B6307F130031A4646
:103E50000021134802F08AF9D7ED0C7A9FED117A10
:103E600067EE877AFCEEE77AC7ED007A3B7887F851
:103E7000373097F8373007F110000B4A1E210AF04F
:103E80008DFA07F110031946F86800F087FA074920
:103E9000F86800F083FA00BF3837BD4680BD00BF28
:103EA000E40000200000C84238140108E80F0108AF
:103EB00080B58EB000AFF860B9607A604FF0000353
:103EC0003B6307F130031A460021134802F0BCF9A6
:103ED000D7ED0C7A9FED117A67EE877AFCEEE77AE0
:103EE000C7ED007A3B7887F8373097F8373007F11D
:103EF00010000B4A1E210AF051FA07F1100319466F
:103F0000F86800F04BFA0749F86800F047FA00BF7C
:103F10003837BD4680BD00BFE40000200000C84225
:103F200054140108E80F010880B58CB000AFF860A8
:103F3000B9607A6007F110031946084802F008F8E2
:103F400007F110031946F86800F028FA0449F868E8
:103F500000F024FA00BF3037BD4680BDE4000020E9
:103F6000E80F010880B400AF024B1846BD465DF86B
:103F7000047B70470416010880B400AF2123184663
:103F8000BD465DF8047B704780B584B000AF7860B3
:103F90000B46FB70FB78FB73FB7B19460348FEF76F
:103FA00094F900BF1037BD4680BD00BF001401402A
:103FB00080B582B000AF00F053F878607B681D4A8E
:103FC000DA607B684FF400621A827B6810229A8064
:103FD0007B684022DA807B6880221A817B682022FD
:103FE0005A817B6801229A747B68134A1A60FFF732
:103FF000B9FF02467B685A61FFF7BEFF03461A46C7
:104000007B681A83786800F086F803460B4A1360D1
:104010000A4B1B68002B01D1012307E0074B1B68EB
:10402000074A1A60074B01221A7000231846083706
:10403000BD4680BD305200206C140108305A00206B
:10404000893F0008345A002080B400AF034B1B683E
:104050001846BD465DF8047B704700BF305A00200B
:1040600080B400AF114B40229A80104B4022DA807E
:104070000E4B80221A810D4B0022DA600B4B00227E
:104080001A820A4B08225A81084B01229A74074B64
:10409000074A1A60054B00221A83044B00225A611A
:1040A000024B1846BD465DF8047B7047385A002025
:1040B0009814010880B485B000AF78607B685B69B4
:1040C000002B02D17B685B8900E00023FB817B68C9
:1040D0009B8803339A087B68DB8803339B081A4468
:1040E0007B681B8903339B08D118FA8913465B0050
:1040F0001344DB0003339B08CA18FB8903339B0876
:10410000134412339BB29B009BB218461437BD4632
:104110005DF8047B704780B588B000AF78600023FD
:10412000FB617868FFF7C6FF0346BB610023FB75A0
:104130007B68DB68002B05D07B681B8A1A46BB694D
:10414000934201D9002371E07B68DB683B61BA6967
:10415000002138690AF0D7F93B69FB613B691033EC
:104160003B61FB693A69DA603B6938333B61FB6963
:10417000DB68FB60FB683A691A617B689B880333E4
:1041800023F003033A6913443B61FB683A69DA613F
:104190007B68DB88033323F003033A6913443B61F4
:1041A0007B685A69FB685A627B681A8BFB689A8540
:1041B0007B681A8BFB68DA85FB683A695A607B6812
:1041C0001A89FB681A81FB7D002B08D0FB6893F8E5
:1041D000333043F00403DAB2FB6883F833207B68A2
:1041E0009B7C002B08D0FB6893F8333043F020030E
:1041F000DAB2FB6883F833207B689A88FB681A83FD
:10420000FB6800229A82FB680022DA827B68DA88E7
:10421000FB685A84FB68002283F832207B681A68A6
:10422000FB681A60FB6800229A86FB6918462037F3
:10423000BD4680BD80B584B000AF78600B46FB7092
:104240007B68DB68FB60FB681033FA781146184620
:1042500000F08AFF034683F00103DBB2002B08D095
:10426000FB6893F8333043F00103DAB2FB6883F85C
:10427000332000BF1037BD4680BD80B584B000AF8D
:1042800078607B681B68002B00F083807B68DB68AC
:10429000FB60FB6893F8333003F00203002B55D129
:1042A000FB6893F8333043F00203DAB2FB6883F81B
:1042B0003320FB681B681946786800F07EFE45E0F5
:1042C000FB681033184600F027FF0346FB72FB68BB
:1042D00093F8333003F00803002B05D0FB7A19461E
:1042E000786800F0F5F92AE0FB6893F832301B2B70
:1042F0000CD1FB7A5B2B09D1FB6893F8333043F088
:104300000803DAB2FB6883F8332018E0FB7A18461A
:1043100000F0AAFE0346002B05D0FB7A1946786808
:1043200000F086FA0BE0FB7A184600F0BDFE03466B
:10433000002B04D0FB7A1946786800F027FA7868D9
:1043400000F012FDFB68FA7A83F83220FB68103324
:10435000184600F0C0FE0346002BB1D1FB6893F86D
:10436000333003F00103002B14D0FB6800221A84C1
:10437000FB68DB69FA68128C134400221A70FB6830
:1043800093F8333023F00103DAB2FB6883F833206B
:1043900000E000BF1037BD4680BD000080B584B08E
:1043A00000AF786039607B681B68002B3ED07B686B
:1043B000DB68FB60FB689B8E7B81FB6893F8333086
:1043C00003F01003002B02D1786800F0C1FDFB68F8
:1043D0007A899A863968786800F0EFFD154B1B687A
:1043E0001946786800F0E9FDFB6893F8333003F074
:1043F0001003002B1BD1FB681B681946786800F07E
:10440000DCFDFB68DB691946786800F0D6FDFB68C7
:104410001A8CFB681A86FB689B8E00221946786806
:1044200000F0ECFD786800F09FFC00E000BF103762
:10443000BD4680BD0801002080B588B000AF78601F
:104440007B68002B66D0354BFB600023FB77002395
:10445000BB770023BB6100237B6147E07B690133AD
:104460007B61BB7F002B02D00023BB7729E0FB7C64
:104470005C2B02D10123BB7738E0FB7C222B10D1CF
:10448000FB7F002B14BF01230023DBB283F0010369
:10449000DBB2FB77FB7F03F00103FB770023FB74A8
:1044A0000FE0FB7F83F00103DBB2002B09D0FB7C24
:1044B0001946F8680AF03EF80346002B01D00023A5
:1044C000FB74FB7C002B09D1BB69002B0EDDBB69A3
:1044D000013B7A6813441B78002B07D0BB697A68CC
:1044E0001344FA7C1A70BB690133BB617B697A683B
:1044F00013441B78FB74FB7C002BAFD1BB697A683B
:10450000134400221A70BB6901337A6813440022F5
:104510001A7000E000BF2037BD4680BD9C14010822
:1045200080B584B000AF78600B467B807B881946ED
:10453000786800F020FF0346FB81FB894FF6FF728D
:10454000934203D0FB897A68134400E000231846A5
:104550001037BD4680BD80B584B000AF78600B4693
:104560007B807B881946786800F005FF0346FB8155
:10457000FB894FF6FF72934203D0FB897A6813449C
:1045800000E0002318461037BD4680BD80B485B0DA
:1045900000AF78607B68002B03D07B681B78002B12
:1045A00001D1002319E00023FB6001237B81FB681C
:1045B0007A6813441B78002B09D1FB6801337A68B1
:1045C00013441B78002B06D07B8901337B81FB6869
:1045D0000133FB60EBE700BF7B8918461437BD460B
:1045E0005DF8047B7047000080B586B000AF78604E
:1045F0000B46FB707B68DB683B613B699B89002B4A
:104600005FD0FB78002B05D03B695A893B699B89B9
:104610009A4256D0FB7883F00103DBB2002B03D023
:104620003B695B89002B4CD0786800F091FC3B69BA
:104630001B681946786800F0C0FCFB78002B06D098
:104640003B695B8901339AB23B695A8105E03B695A
:104650005B89013B9AB23B695A813B691A1D3B69F0
:104660005B891946104600F00DFE78617B69002BCE
:1046700001D1164B7B617869FBF70AFE0346FB818B
:104680003B69DB69FA897969184609F0D8FF3B690B
:10469000DA69FB89134400221A703B69FA891A848B
:1046A0003B69DB691946786800F087FC3B691A8C26
:1046B0003B691A863B6900229A86786800F054FBB1
:1046C00000E000BF1837BD4680BD00BFA014010840
:1046D00090B585B000AF78600B46FB707B68DB68F7
:1046E000FB60FB783F2B48D9FB787E2B45D8FB68D5
:1046F00093F8333023F00803DAB2FB6883F83320F1
:10470000FB78412B02D0FB78422B09D1FB78412B5F
:104710000CBF01230023DBB219467868FFF764FF62
:10472000FB78432B0FD1FB689B8E002B0BD0FB68D3
:104730009B8E013B9AB2FB689A86124B1B68194606
:10474000786800F03AFCFB78442B16D1FB689B8E0E
:104750001C46FB68DB691846FBF79AFD03469C4242
:104760000BD2FB689B8E01339AB2FB689A86064B8C
:104770001B681946786800F020FC00BF1437BD465E
:1047800090BD00BF0C0100201001002080B584B056
:1047900000AF78600B46FB707B68DB68FB60FB68F2
:1047A0001B8C0233FA68528C93423BDAFB68DB695C
:1047B0001846FBF76DFD0246FB689B8ED31ABB6063
:1047C000FB68DA69BB680133D018FB68DA69BB683B
:1047D000D118FB689B8E01331A4609F07AFEFB68FC
:1047E0001B8C01339AB2FB681A84FB681B8E013361
:1047F0009AB2FB681A86FB68DA69BB681344FA78D8
:104800001A70FB689B8E002B05D0084B1B6819465D
:10481000786800F0D2FB7B681B68FA7811467868EC
:10482000984700E000BF1037BD4680BD1C01002046
:1048300080B584B000AF78600B46FB707B68DB68A6
:10484000FB60FB6893F832300D2B02D1FB780A2B0A
:1048500078D0FB6893F832300A2B02D1FB780D2B0D
:1048600070D0FB780D2B02D0FB780A2B29D1786809
:1048700000F0DCFA354B1B681946786800F09DFBA8
:10488000FB681B8C002B02D0786800F065F8FB6891
:1048900000221A84FB68DB69FA68128C1344002238
:1048A0001A70FB6800221A86FB6800225A81FB6896
:1048B00000229A86FB681B681946786800F07DFB29
:1048C00041E0FB78082B02D0FB787F2B33D1FB68CB
:1048D0001B8C1A46FB689B8ED31A002B2BDD1C4BBE
:1048E0001B681946786800F068FB1A4B1B6819466C
:1048F000786800F062FBFB68DB691846FBF7C8FCD0
:104900000246FB689B8ED31ABB60FB68DA69BB6802
:10491000013BD018FB68DA69BB68D118FB689B8E35
:1049200001331A4609F0D5FDFB681B8C013B9AB296
:10493000FB681A8407E0FB78092B04D1786800F043
:1049400075FA00E000BF1037BD4680BD08010020A9
:10495000100100202001002090B58FB000AF7860DA
:104960007B68DB68BB61012387F8373000233B633A
:104970000DE0BB69DA693B6B13441B78202B03D035
:10498000002387F8373008E03B6B01333B63BB699A
:104990001B8C1A463B6B9342EBDB97F83730002BAE
:1049A00040F0FA80BB691A1DBB69DB6919461046E5
:1049B00000F004FC0023FB620023BB62002387F8A5
:1049C000273000233B6230E0BB69DA693B6A13445D
:1049D0001B78FB75FB7D202B0FD1BB6A002B05D10B
:1049E000BB69DA693B6A134400221A70FB6A002B28
:1049F00018D0012387F8273014E0FB6A002B05D17B
:104A0000BB69DA693B6A1344FB620BE0BB6A002BAB
:104A100008D197F82730002B04D0BB69DA693B6ACC
:104A20001344BB623B6A01333B62BB691B8C1A4671
:104A30003B6A9342C8DBBB69DA69BB691B8C0133F3
:104A4000134400221A70FB6A002B00F0A780002399
:104A5000FB6172E0BB69596AFA6913465B00134453
:104A6000DB000B445B681946F86AFBF7B1FB0346B1
:104A7000002B5FD1BB69596AFA6913465B00134486
:104A8000DB000B445B69002B5ED0BB69596AFA6995
:104A900013465B001344DB000B441B7B002B02D04E
:104AA000B86AFFF7C9FCBB6993F8333043F01003D1
:104AB000DAB2BB6983F83320BB6A002B1AD03949BC
:104AC000B86AFBF785FB0346002B06D03649B86A67
:104AD000FBF77EFB0346002B0CD1BB69596AFA69D0
:104AE00013465B001344DB000B441946786800F062
:104AF0005DF815E0BB69596AFA6913465B00134417
:104B0000DB000B445C69BB69596AFA6913465B00B8
:104B10001344DB000B441B691A46B96A7868A04746
:104B2000BB6993F8333023F01003DAB2BB6983F822
:104B3000332034E0FB690133FB61BB699B8D1A466E
:104B4000FB69934286DB00E000BF7B685B68002B5B
:104B50001DD0FB6AFB60BB6A3B61BB6993F83330D5
:104B600043F01003DAB2BB6983F833207B685B68DB
:104B700007F10C02114678689847BB6993F8333007
:104B800023F01003DAB2BB6983F8332007E0F96A37
:104B9000786800F05FFE02E000BF00E000BF3C3735
:104BA000BD4690BDA4140108A814010880B582B0C8
:104BB00000AF786039603B689B68002B10D07B6841
:104BC0001B680921786898473B689B681946786894
:104BD00000F0F3F9044B1B681946786800F0EDF912
:104BE00000BF0837BD4680BD0801002080B58EB0EB
:104BF00000AFF860B9607A6000233B610023BB829C
:104C00000023FB827868FBF743FB7862BB68DB68B4
:104C10003B623B6A9B8D002B02D07B6A002B08D144
:104C2000FB681A4607F1100393E8030082E80300CB
:104C300095E000237B6383E03B6A596A7A6B1346F5
:104C40005B001344DB000B445B68FB61F869FBF716
:104C50001FFBB8613B6A9A6A7B6B13441A783B6A04
:104C6000996A7B6B0B4422F00102D2B21A70BA69C6
:104C70007B6A9A425ED3012387F833300023FB62BC
:104C800010E07A68FB6A13441A78F969FB6A0B44EE
:104C90001B789A4203D0002387F8333006E0FB6A82
:104CA0000133FB62FA6A7B6A9A42EAD397F833309F
:104CB00083F00103DBB2002B3ED13B6A9A6A7B6B27
:104CC00013441A783B6A996A7B6B0B4442F00102E9
:104CD000D2B21A70FB8A002B04D0BB8A1A46BB6979
:104CE000934202D2BB699BB2BB82FB8A01339BB267
:104CF000FB82FB8A012B02D1FB693B611DE03B6A11
:104D00001B8CBB6210E03A69BB6A13441A78F969DC
:104D1000BB6A0B441B789A4203D0BB6A9BB2BB822E
:104D20000BE0BB6A0133BB62BB8A1A46BB6A934283
:104D3000E9D302E000BF00E000BF7B6B01337B637F
:104D40003B6A9B8D1A467B6B9342FFF675AFFB68FF
:104D50001A4607F1100393E8030082E80300F8689D
:104D60003837BD4680BD000080B588B000AF7860A0
:104D70007B68DB687B617B6993F8333003F0200349
:104D8000002B4AD07B69DA6907F10C037968184671
:104D9000FFF72CFF7B8A002B02D17B691B8C3B82A7
:104DA000204B1B681946786800F007F97B699B8ED9
:104DB00001221946786800F021F97B691B8CFB61A0
:104DC0000BE07B681B68F968FA690A44127811469F
:104DD00078689847FB690133FB613B8A1A46FB6997
:104DE0009342EED33B8ABB6107E07B681B682021BE
:104DF00078689847BB690133BB617B691B8E1A4693
:104E0000BB699342F1D33A8A7B691A86064B1B68C9
:104E10001946786800F0D1F800E000BF2037BD46A1
:104E200080BD00BF140100201801002080B588B0AB
:104E300000AF78607B68DB68BB61BB69DA6907F14A
:104E40000C0379681846FFF7D1FE7B8A002B78D0D7
:104E50007B8A012B04D03A8ABB691B8C9A4231D9D8
:104E6000BB69DB69F9683A8A184609F0E8FB7B8A76
:104E7000012B09D1BB69DB693A8A134420221A70DD
:104E80003B8A01339BB23B82BB69DB693A8A13449C
:104E900000221A70BB69DB69BA69128C1146BA69C3
:104EA000928E8A1A13441946786800F086F83A8A76
:104EB000BB691A84BB691A8CBB691A86BB6900225C
:104EC0009A863FE0786800F043F80023FB6121E018
:104ED000BB699A6AFB6913441B7803F00103002B3A
:104EE00014D0BB69596AFA6913465B001344DB00AE
:104EF0000B445B687B617969786800F05EF8134B5E
:104F00001B681946786800F058F800E000BFFB699C
:104F10000133FB61BB699B8D1A46FB699342D7DB6A
:104F2000BB691B681946786800F047F8BB69DB6904
:104F30001946786800F041F8BB691A8CBB691A867B
:104F400000E000BF2037BD4680BD00BF0801002043
:104F500090B587B000AF78607B68DB683B613B69E8
:104F60001B8E1C463B691B681846FBF791F90346EC
:104F70002344FB607B681B680D21786898470023F9
:104F80007B6107E07B681B682021786898477B6914
:104F900001337B617A69FB689A42F3D37B681B68B3
:104FA0000D21786898473B6900221A863B690022E8
:104FB0009A8600BF1C37BD4690BD80B584B000AF57
:104FC000786039603868FBF763F9B8600023FB60EC
:104FD0000BE07B681B683968FA680A44127811464E
:104FE00078689847FB680133FB60FA68BB689A42AF
:104FF000EFD300BF00BF1037BD4680BD80B586B07F
:1050000000AF78600B467B8013467B707B88002B5B
:1050100020D007F10C0300221A605A601A727B78C4
:10502000002B04D00D4B1B6802331B7803E00C4BA4
:105030001B6802331B78FB757A88FB7D07F10C0037
:10504000084909F0E1F907F10C0319467868FFF700
:10505000B4FF00E000BF1837BD4680BD0C01002042
:1050600010010020B014010880B483B000AF0346E3
:10507000FB71FB790D2B0BD0FB790A2B08D0FB7948
:10508000082B05D0FB79092B02D0FB797F2B01D1AE
:10509000012300E0002303F00103DBB218460C37C4
:1050A000BD465DF8047B704780B483B000AF034613
:1050B000FB71FB791F2B04D9FB797E2B01D80123CF
:1050C00000E0002303F00103DBB218460C37BD46B5
:1050D0005DF8047B704780B483B000AF78607B6874
:1050E000DA887B689B889A4206D37B68DA887B687B
:1050F0009B88D31A9BB209E07B681A897B689B88DE
:10510000D31A9AB27B68DB8813449BB218460C37DB
:10511000BD465DF8047B704780B485B000AF786011
:105120000023FB737B689A887B68DB889A4214D0E3
:105130007B681B687A68928813441B78FB737B68D2
:105140009B8801339BB27A681289B3FBF2F101FBB1
:1051500002F29B1A9AB27B689A80FB7B184614373E
:10516000BD465DF8047B704780B485B000AF7860C1
:105170000B46FB707B68DB8801339BB27A6812892F
:10518000B3FBF2F101FB02F29B1AFB817B689B8867
:10519000FA899A420BD07B681B687A68D2881344DC
:1051A000FA781A707B68FA89DA80012300E000231C
:1051B00018461437BD465DF8047B704780B588B04B
:1051C00000AF786039603868FBF762F8B8617B68D7
:1051D0009B881A46BB6901339A4201D200234DE0F5
:1051E0003968786800F06AF824E07B681B89194602
:1051F000786800F047F878617869FBF749F838611A
:105200007B681B687A69D31A1A463B6913440133D9
:10521000FB617B689B881A46FB69D31AFB60BB69FC
:105220000133FA689A420AD27B681B89013B9AB221
:105230007B681A817B681B89002BD6D100E000BFF8
:105240007B681B89002B0AD07B681A68BB69013315
:10525000D0187B681B68FA69194609F03AF97B682F
:105260001868BB6901331A46396809F0E8F97B68A8
:105270001B8901339AB27B681A81012318462037B3
:10528000BD4680BD80B582B000AF78600B467B80A4
:105290007B88002B04D07B681B897A889A4201D9CD
:1052A000002307E07B681B687A8811461846FFF7E1
:1052B00037F9034618460837BD4680BD80B586B02D
:1052C00000AF786039603B68002B4CD07B681B894D
:1052D000002B48D000237B6101237B8213E07B6895
:1052E0001B687A8A11461846FFF735F978613968E4
:1052F0007869FAF76DFF0346002B0AD000237B6123
:105300007B8A01337B827B681B897A8A9A42E6D941
:1053100000E000BF7B69002B27D07B681B89013B25
:105320009AB27B681A817A8A7B681B8901339A4218
:105330001DD07869FAF7ACFFF8607B689B88194646
:10534000FB6801337A691A447B681B68D31ACB1A4D
:10535000BB60FB6801337A691344BA6819467869FF
:1053600009F0B7F804E000BF02E000BF00E000BFB2
:105370001837BD4680BD80B485B000AF78600B465D
:105380007B807B68002B02D07B88002B02D14FF6FC
:10539000FF7328E00023FB810123BB81BA897B884E
:1053A0009A4213D0FB897A6813441B78002B09D1E9
:1053B000BB890133BB81FB8901337A6813441B78B5
:1053C000002B05D0FB890133FB81E7E700BF00E03C
:1053D00000BFFB897A6813441B78002B01D0FB893E
:1053E00001E04FF6FF7318461437BD465DF8047BA5
:1053F000704780B586B000AFF860B9607A6000236E
:105400007B6110E07B699B00BA6813441B681946F6
:10541000F868FAF7DDFE0346002B01D17B6908E04E
:105420007B6901337B617A697B689A42EADB4FF0E2
:10543000FF3318461837BD4680BD000080B586B0E2
:1054400000AFF860B9607A60B868FAF721FF0346E8
:105450003B61B968F868FFF7B0FD00237B6106E0A7
:105460000849F868FFF7A9FD7B6901337B617A6819
:105470003B69D31A7A699A42F2DB00BF00BF183742
:10548000BD4680BD9C1401082DE9F04395B000AFE6
:10549000F860B9607A60FB68DB687B637B6B9B8D2F
:1054A000002B0AD18C49F868FFF787FD8B4B1B68EE
:1054B0001946F868FFF781FDBAE1B868FFF766F8AA
:1054C00003467B867B8E002B40F0F6806B461E46A3
:1054D0002023BB62BB6A013B7B62BB6A0022984609
:1054E00091464FF000024FF000034FEA491343EAA0
:1054F000D8634FEA4812BB6A00221C4615464FF09B
:1055000000024FF000036B0143EAD4636201BB6AFF
:105510009B000733DB08DB00ADEB030D6B46033369
:105520009B089B003B620023FB640023BB642DE0CF
:105530007B6B596ABA6C13465B001344DB000B4467
:105540001B68002B09D07B6B596ABA6C13465B0051
:105550001344DB000B441B6800E0614BBB61FA6C39
:10556000396AB869FFF745FF78617B69002B0ADA71
:10557000FA6CBB6A9A4206DAFB6C5A1CFA643A6A05
:10558000B96942F82310BB6C0133BB647B6B9B8D04
:105590001A46BB6C9342CBDB00237B6485E0514908
:1055A000F868FFF70AFD3B6A7A6C53F82230194617
:1055B000F868FFF702FD4C49F868FFF7FEFC474B1F
:1055C0001B681946F868FFF7F8FC00233B645DE0B0
:1055D0007B6B596A3A6C13465B001344DB000B4447
:1055E0001B68002B09D07B6B596A3A6C13465B0031
:1055F0001344DB000B441B6800E0394BFB613B6A42
:105600007A6C53F822301946F869FAF7E1FD03463F
:10561000002B38D13549F868FFF7CFFC7B6B596A0E
:105620003A6C13465B001344DB000B445B681022AA
:105630001946F868FFF702FF2D49F868FFF7BDFC2F
:105640007B6B596A3A6C13465B001344DB000B44D6
:105650009B68002B0DD07B6B596A3A6C13465B003C
:105660001344DB000B449B681946F868FFF7A5FC60
:1056700003E02049F868FFF7A0FC184B1B681946A7
:10568000F868FFF79AFC3B6C01333B647B6B9B8DA6
:105690001A463B6C93429BDB104B1B681946F8681B
:1056A000FFF78BFC7B6C01337B647A6CFB6C9A425A
:1056B000FFF675AFB546BBE07B8E012B40F0AE80A8
:1056C0000121B868FEF72CFFF862002387F83F300D
:1056D0000023BB638FE000BFB8140108080100205D
:1056E000D0140108E0140108E4140108E8140108CA
:1056F000F0140108F41401087B6B596ABA6B134665
:105700005B001344DB000B445B68F96A1846FAF748
:105710005FFD0346002B6BD1012387F83F304649DC
:10572000F868FFF74AFC7B6B596ABA6B13465B005B
:105730001344DB000B445B681946F868FFF73DFC37
:105740003E4B1B681946F868FFF737FC3C49F86880
:10575000FFF733FC7B6B596ABA6B13465B0013444B
:10576000DB000B441B68002B09D07B6B596ABA6BBA
:1057700013465B001344DB000B441B6800E0314B15
:105780001946F868FFF719FC2C4B1B681946F86896
:10579000FFF713FC7B6B596ABA6B13465B0013442B
:1057A000DB000B449B68002B17D02749F868FFF7F4
:1057B00004FC7B6B596ABA6B13465B001344DB0035
:1057C0000B449B681946F868FFF7F7FB1B4B1B68F7
:1057D0001946F868FFF7F1FB14E01C49F868FFF779
:1057E000ECFB164B1B681946F868FFF7E6FB09E06F
:1057F000BB6B0133BB637B6B9B8D1A46BB6B9342C8
:10580000FFF67AAF97F83F3083F00103DBB2002B4D
:105810000ED0F96AF86800F01DF809E00C49F86844
:10582000FFF7CBFB054B1B681946F868FFF7C5FB74
:105830005437BD46BDE8F08300150108080100207B
:105840000C150108D014010818150108F4140108FA
:105850002015010880B582B000AF786039600B492F
:105860007868FFF7AAFB39687868FFF7A6FB084954
:105870007868FFF7A2FB074B1B6819467868FFF7AB
:105880009CFB00BF0837BD4680BD00BF5015010816
:10589000641501080801002080B483B000AF5B4BA1
:1058A0005B790133DAB2594B5A71584B5B793B2B18
:1058B0007AD9564B00225A71544B1B790133DAB214
:1058C000524B1A71514B1B793B2B6DD94F4B002218
:1058D0001A714E4BDB780133DAB24C4BDA704B4B1A
:1058E000DB78172B60D9494B0022DA70474B1B78C5
:1058F0000133DAB2454B1A70444B9B7803F0030333
:10590000DBB2002B1ED1414B9B78414AA2FB031214
:105910005209642101FB02F29B1ADBB2002B0FD16A
:105920003A4B9B781A463A4B83FB0213D911D31793
:10593000CB1A4FF4C87101FB03F3D31A002B01D12A
:10594000012300E00023FB71304B5B78022B03D175
:10595000FB791C33DBB204E02C4B5B78013B2D4A16
:10596000D35CBB71294B1B78BA799A421CD2274B66
:1059700001221A70254B5B780133DAB2234B5A703F
:10598000224B5B780C2B0FD9204B01225A701F4BF6
:105990009B780133DAB21D4B9A701C4B9B78632BBA
:1059A00002D91A4B00229A701B4B9B790133DAB251
:1059B000194B9A71184B9B793B2B21D9164B00221E
:1059C0009A71154B5B790133DAB2134B5A71124B52
:1059D0005B793B2B14D9104B00225A710E4B1B796B
:1059E0000133DAB20C4B1A710B4B1B79172B07D909
:1059F000094B00221A71084B1B680133064A1360D9
:105A000000BF0C37BD465DF8047B704724010020C1
:105A10001F85EB511C190108545A002080B500AFB6
:105A2000114B00229A70104B01225A700E4B01222A
:105A30001A700D4B0022DA700B4B00221A710A4BC0
:105A400000225A71094B00221A60084B00221A7179
:105A5000064B00225A71054B00229A7104490548F1
:105A600007F0C8FD00BF80BD24010020545A00206B
:105A7000300100202C01002080B483B000AF78609A
:105A800039607B683A689A6100BF0C37BD465DF8A3
:105A9000047B704780B582B000AF78607B685A683D
:105AA0007B681B8919461046FFF7E6FF00BF0837E1
:105AB000BD4680BD80B582B000AF78607868FFF7E2
:105AC000E9FF00BF0837BD4680BD80B483B000AF9A
:105AD00078607B681B6803F02003202B0CBF012338
